:02000002B0004C
:1040000000400B00C8850B00000006000D000502F3
:0840100004010410000000008F
:04401800F87D0B0024
:10401C0009480A49884208B505D0094A824202D0AB
:10402C00121A03F039FD0748074A0021121A03F04F
:10403C005BFD014808BD00BF34E50320E8840B009C
:10404C00ECE50320ECE50320EDE7032070B5074E0B
:10405C00074C02F03DFBA41BA4080025AC4200D188
:10406C0070BD56F8043B98470135F7E78C840B007C
:10407C00B4840B0000F01EBA08B500F073FABDE86A
:10408C00084002F0DDBA01F041B901F03FB901F08E
:10409C0045B9000008B5034A03490C2001F070F83B
:1040AC00FEE700BF0D4F0B000C7E0B000078B0FA42
:1040BC0080F040097047012303707047704710B5BA
:1040CC000C210446FFF7E3FF204610BD0EB400B5EB
:1040DC008CB00DAA4FF0200C52F8041B0392CDE9C2
:1040EC0000120023016804AA1E20CDE904C301F0CC
:1040FC004FF80CB05DF804EB03B0704738B5074CC3
:10410C0025684DB90C20FFF7BEFF20B1044BC0E968
:10411C000035052383602060206838BDF0E503205E
:10412C006C7E0B007047000038B5214C256800F000
:10413C0071F800F081F9032835D8DFE800F002129D
:10414C0021301C4A002313601B4A13702368AB42B6
:10415C0006D0D4BF194A1A4A1A491B48FFF7B6FFB2
:10416C0038BD1549134A0B783BB100200870116813
:10417C002368022904BF0133236001231360E5E7A0
:10418C000D490C4A0B7843B1002008701168236864
:10419C00012904BF03F1FF3323600223EEE7064B32
:1041AC0001221A70D2E709490748FFF78FFFCDE7C4
:1041BC00ECE50320F8E50320F4E503202E7E0B004C
:1041CC00217E0B00547E0B0084E603203B7E0B000B
:1041DC00014B1960704700BFECE50320704710B528
:1041EC0018210446FFF753FF204610BD38B505468D
:1041FC00074B45F8043B044603F02AF84FF0FF3315
:10420C0001461A46284600F0C9FD204638BD00BFBD
:10421C00E07F0B0038B5064D2B683BB91820FFF733
:10422C0032FF044608B1FFF7E1FF2C60286838BD67
:10423C00FCE503202DE9F04F2E4DDFF8C880DFF8A8
:10424C00C8B0DFF8C8A02E68002385B02B6001270A
:10425C00C146041D204600F0EFFD204600F0E6FDAF
:10426C001BF8013B08220621204600F008FE012025
:10427C0002F0BAF9204600F0DCFD00F049FE039094
:10428C00204600F0DCFD88B900F042FE039BC01A0A
:10429C00B0F5FA7FF4D918481849FFF717FF6FF0FB
:1042AC00020005B0BDE8F08F0227D3E7204600F0EE
:1042BC00DBFD5AF8042B48F8040B13329042CCBFA8
:1042CC003B4600232A68022F13442B60ECD1B342E7
:1042DC000AD0D9F804200192D9F80020009208499C
:1042EC0005483246FFF7F2FE2868801B18BF0120F4
:1042FC00D7E700BF14E6032084E60320747E0B008E
:10430C00857E0B0020E6032034E5032018E603200D
:10431C00F8B5194C194F064663253046FFF78AFF4E
:10432C0022683B6879681A44636822600B44013D3B
:10433C006360F2D1124F642193FBF1F363603B682D
:10434C0092FBF1F222603BB90E480F49D4E90023ED
:10435C00FFF7BCFE0120F8BD0C490A48FFF7B6FE7A
:10436C0042F2107002F040F93046FFF763FF3B68F1
:10437C00002BE9D02846EEE718E6032020E60320C0
:10438C0014E6032084E60320B97E0B00F37E0B00B9
:10439C0038B5051D0446284600F03AFD10B32049F7
:1043AC002048FFF793FE42F2107002F01DF901F065
:1043BC003DF8284600F054FD2D21284600F065FDFF
:1043CC0040F2DC51284600F05DFD1421284600F037
:1043DC0044FD2046FFF72EFF053008D10A2002F0DD
:1043EC0003F9F6E710490F48FFF770FEE1E70D48B7
:1043FC000E49FFF76BFE2046FFF78AFF20B10C49F0
:10440C000848FFF763FE38BD0A490648FFF75EFE11
:10441C0042F2107002F0E8F8BDE8384001F006B83E
:10442C002F7F0B0084E60320507F0B00697F0B006D
:10443C008D7F0B00A27F0B00014B1868704700BFEB
:10444C0014E6032010B502F003FF4FF0FF330146D2
:10445C00BDE8104001481A4600F0A0BC00E603205D
:10446C007047006A0368DB68184700000A4B10B5F8
:10447C000446036001F096FA214601F0CEFC02F0EE
:10448C0035FA02F025FA2046044B40F8043B01F0C3
:10449C005FFB204610BD00BF08800B00F07F0B00B7
:1044AC0010B50446FFF7E2FF20462421FFF7EFFD8D
:1044BC00204610BD38B502F0CBFE02F02FFB0020D9
:1044CC0000F02EFD42F210750446002000F028FD8D
:1044DC00001B61F10001A84271F1000307D202F048
:1044EC0005FA02F0F8F910B900F000FFEDE702F060
:1044FC00FDF902F0F0F94FF47A7002F075F8012131
:10450C00072002F00DFE0021032002F009FE01211C
:10451C00022002F005FE0021022002F012FE012111
:10452C00072002F00EFE642002F05EF8FFF772FE28
:10453C00FFF72EFFFFF7E2FDFFF7F4FDFFF7DEFDBF
:10454C000121FFF745FE05490548FFF7BFFDBDE812
:10455C0038400021072002F0F4BD00BF36E50320EF
:10456C0084E6032010B5104C00F0D2FC2368C01A6E
:10457C00B0F57A7F0BD9072002F0FCFDB0FA80F180
:10458C004909072002F0DDFD00F0C2FC2060FFF7B6
:10459C0041FEFFF74FFE28B1FFF7B0FDBDE810401C
:1045AC00FFF7C2BD10BD00BF34E6032070B5D0E9E3
:1045BC0000531426044606FB0356AE4204D028468C
:1045CC0000F04AFF1435F8E7206800F0A7FE2046FB
:1045DC0070BD8842F8B504460D46164616D9904271
:1045EC0015D2A2F11406751AA1F114072C44B74286
:1045FC001CD02CB13146204600F096FF337C23743E
:10460C00304600F029FF143E143CF0E70ED0B542C2
:10461C000CD02CB12946204600F086FF2B7C23744D
:10462C00284600F019FF14351434F0E7F8BD2DE9D5
:10463C00F0410023C0E9003383604F689F42044679
:10464C000E4623DD4FF0140808FB07F000F05EFE69
:10465C000546D8B1D4E9001208FB0212FFF7B9FFE6
:10466C00206800F05BFE2560A760D6E9007308FBAC
:10467C000378B84508D03946284600F06FFF3B7CDC
:10468C002B7414371435F4E7736863602046BDE867
:10469C00F0810000F0B58DB00024CDE90044029407
:1046AC0002F024F9204D0646694603A8FFF7BFFF28
:1046BC002F4603A906A8FFF7BAFF1C4B47F8043B8B
:1046CC0006A909A8FFF7B3FF09AA1E21384601F075
:1046DC0087FC09A8FFF76AFF06A8FFF767FF144BD2
:1046EC002B6003A82E62FFF761FF124B2B6002F0C8
:1046FC00FDF84FF4165102F0E7F801F053F9294692
:10470C0001F044FB6846FFF751FF0B4B0B4A9A60D4
:10471C00C3E90044032000F053FD214601200DB0F5
:10472C00BDE8F04000F05CBD38E60320F07F0B00E4
:10473C0064810B0008800B0028E603200000FFFFBB
:10474C00F7B5044615464068BDF8207049081E466A
:10475C0002F016FA2B0A60688DF805508DF80430BB
:10476C0003680222DB6801A998470025AF42606804
:10477C0005DD0368715D9B6898470135F6E70121FB
:10478C0002F002FA002003B0F0BD1FB58DF80F3017
:10479C000123097800930DF10F03FFF7D1FF05B04A
:1047AC005DF804FB816901238622FFF7EEBF816966
:1047BC0040238722FFF7E9BF816900238722FFF797
:1047CC00E4BF102970B50D4628BF1025102A1646D7
:1047DC0028BF10260A29044613D80B2A28BFC72342
:1047EC00A1697F222046FFF7D0FF013D731E45EAE9
:1047FC000313A1692046DBB2BDE870408022FFF7AD
:10480C00C4BFC723ECE71FB51C0A8DF80D3002237B
:10481C000978009303AB8DF80C40FFF791FF04B0BF
:10482C0010BD08B56622CB088169FFF7ECFF0020AC
:10483C0008BDB1F5804F10B407D289008BB25DF87A
:10484C00044B81696422FFF7DEBF01205DF8044B45
:10485C0070472DE9F743044690461D464F084FEA32
:10486C00122905266068394602F08AF960688DF8CD
:10487C0004908DF80580036801A9DB680222984733
:10488C006068002102F080F918B1013E16F0FF06B5
:10489C00E8D19DF828206068394602F06EF9013D98
:1048AC00606803681B69984730B1606803685B698E
:1048BC00984705F8010FF3E703B0BDE8F08313B593
:1048CC00012409780094FFF7C4FF003818BF0120B9
:1048DC00404202B010BD13B530220C460DF1070357
:1048EC008169FFF7ECFF9DF807306FEA131303F0B3
:1048FC000103237002B010BD37B505460C460DF10F
:10490C000701FFF7E8FFA9690DF1060331222846DC
:10491C00FFF7D5FF50B99DF806309DF8072003F03E
:10492C0001039A4206BF01232370207003B030BDEF
:10493C0073B500231C4E8DF8073004462D25AAB202
:10494C0016F8013BA16920460135FFF71EFF882DA3
:10495C00F5D12046FFF72BFF98259DF8073063B95A
:10496C000DF107012046013DFFF7C6FF15F0FF05CD
:10497C0017D0012001F038FEEFE72046FFF712FFB9
:10498C002046FFF719FFA169092308222046FFF7EB
:10499C00FCFEA16900230B222046FFF7F6FE02B0B5
:1049AC0070BD6FF00600FAE718800B0013B54B22B0
:1049BC000DF107030C468169FFF781FF9DF8073065
:1049CC00142B03D10123238002B010BD0A2BFBD181
:1049DC000223F8E773B50D460DF106010446FFF707
:1049EC00E5FFBDF80630064653B1012B52D1322DEE
:1049FC0032D007D8142D25D0212D2BD00F2D12D02D
:104A0C0001261CE0C82D31D0B5F5FA7F38D0642DC5
:104A1C00F6D140F2E123A1695E222046FFF7F3FEB6
:104A2C004FF4627306E01D23A1695E222046FFF756
:104A3C00EAFE2723A16961222046FFF7E4FE3046F7
:104A4C0002B070BD5123A1695E222046FFF7DBFE48
:104A5C006E23EFE7D623F6E74FF4D773A1695E22F6
:104A6C002046FFF7D0FE4FF4F473E3E740F2E13356
:104A7C00A1695E222046FFF7C6FE40F29643D9E7B5
:104A8C0040F29153A1695E222046FFF7BCFE40F232
:104A9C00C153CFE7642D27D00DD8212D1AD0322D3C
:104AAC001AD0142DACD11E23A1695E222046FFF72B
:104ABC00AAFE2223BEE7C82D20D0B5F5FA7F9FD1E0
:104ACC0040F28F43A1695E222046FFF79CFE40F224
:104ADC00A443AFE76023B6E7AD23A1695E2220466D
:104AEC00FFF791FEC623A5E74FF4E673A1695E229A
:104AFC002046FFF788FE4FF4F5739BE740F2D9236D
:104B0C00A1695E222046FFF77EFE4FF43E7391E7CB
:104B1C001FB51C460023ADF80C3002230978009316
:104B2C0003ABFFF796FE30B99DF80C209DF80D30C5
:104B3C0003EB0223238004B010BD13B55E220DF1EC
:104B4C0006030C468169FFF7E3FFBDF80630B3F5A9
:104B5C00D77F34D010D8512B2FD005D81D2B28D06F
:104B6C001E2B2AD0002325E0AD2B28D0D62B01D02C
:104B7C00602BF7D121231DE040F2E132934220D08B
:104B8C000CD840F2D92293421BD040F2E12293423E
:104B9C0002D0B3F5E67FE5D164230BE040F28F42FF
:104BAC00934203D040F291529342DBD14FF4FA730B
:104BBC0000E00F23238002B010BD1423FAE7322348
:104BCC00F8E7C823F6E737B50D460DF106010446A4
:104BDC00FFF7B3FF012D08D0022D2DD0BDF8061024
:104BEC002046FFF7F7FE03B030BDA16914234B221A
:104BFC002046FFF7CAFDA169072360222046FFF774
:104C0C00C4FDA169052363222046FFF7BEFDA169FF
:104C1C00382369222046FFF7B8FD40F20573A169DD
:104C2C0078222046FFF7EFFD40F20663A1697A2255
:104C3C002046FFF7E8FDD1E7A1690A234B22204665
:104C4C00FFF7A3FDA1690F2360222046FFF79DFD0E
:104C5C00A1690D2363222046FFF797FDA169B823B4
:104C6C0069222046FFF791FD40F60D73A169782269
:104C7C002046FFF7C8FD40F60E63D7E713B50023B7
:104C8C000C46ADF8063081690DF1060340F20F12A7
:104C9C00FFF73EFFBDF80630238002B010BD13B500
:104CAC0096220C460DF106038169FFF731FFBDF822
:104CBC000630238002B010BDF7B5012304460D4623
:104CCC00ADF8043081690DF106039822FFF720FF3F
:104CDC0001ABA1698C222046FFF71AFF0446BDF8F0
:104CEC00060002F02FFC0B4B002202F095FC06464E
:104CFC00BDF804000F4602F025FC02460B46304678
:104D0C00394602F0B3FD02F099FE2880204603B02C
:104D1C00F0BD00BF00409F40704708B58068002878
:104D2C0003DB002180B202F00CFABDE808400A2037
:104D3C0001F05ABC08B58068002803DB012180B261
:104D4C0002F0FFF9BDE808400A2001F04DBC10B597
:104D5C001C210446FFF79BF9204610BD13B50C46E9
:104D6C000DF10601FFF79BFFBDF80630236002B082
:104D7C0010BD07B50DF10601FFF780FFBDF8060069
:104D8C004EF6AC63C01A18BF4FF0FF3003B05DF89D
:104D9C0004FB08B5FFF7CCFD08BD00002DE9F84376
:104DAC004FF05209C0E90012C0F80C908360054620
:104DBC001C200F4616469846FFF765F9044680B14D
:104DCC000A4B80F81090C0E90037002E00F1100358
:104DDC00C0E902684761836103DB0121B0B202F0D4
:104DEC009FF92C612846BDE8F88300BF7C800B003E
:104DFC0007B50DF106010069FFF740FFBDF806008D
:104E0C004EF6CC23C31A5842584103B05DF804FB4C
:104E1C0010B50446FFF7ECFF30B12069FFF788FDB1
:104E2C00003818BF012010BD0120FCE70069FFF716
:104E3C00B9BC0069FFF7BBBC0069FFF7BDBC07B587
:104E4C000DF107010069FFF757FD9DF807000038C9
:104E5C0018BF012003B05DF804FB0069FFF7BABD71
:104E6C0000690221FFF7AFBE07B50DF1060100691D
:104E7C00FFF722FFBDF8060003B05DF804FB0069E4
:104E8C00FFF79FBC0069FFF7CCBC0069FFF7D1BCF2
:104E9C0008B5024B1B689B68019308BD68020300B0
:104EAC0008B5024B1B68DB68019308BD6802030060
:104EBC0008B5024B1B689B68019308BD2C020300CC
:104ECC0008B5024B1B68DB68019308BD2C0203007C
:104EDC0008B5024B1B681B69019308BD2C0203002B
:104EEC0008B5024B1B685B69019308BD2C020300DB
:104EFC0008B5024B1B685B68019308BD18020300E0
:104F0C0008B5024B1B68DB68019308BD180203004F
:104F1C0008B5024B1B685B69019308BD18020300BE
:104F2C0008B5024B1B68DB6D019308BD180203002A
:104F3C0008B5024B1B685B6C019308BD480203006B
:104F4C0008B5024B1B689B6C019308BD480203001B
:104F5C0008B5024B1B68DB6C019308BD48020300CB
:104F6C0008B5024B1B685B6D019308BD480203003A
:104F7C0008B5024B1B685B69019308BD6402030012
:104F8C0008B5024B1B689B68019308BD3C020300EB
:104F9C0008B5024B1B68DB68019308BD3C0203009B
:104FAC0008B5024B1B681B69019308BD3C0203004A
:104FBC0008B5024B1B685B69019308BD3C020300FA
:104FCC0008B5024B1B689B69019308BD3C020300AA
:104FDC0008B5024B1B68DB69019308BD3C0203005A
:104FEC0008B5024B1B681B6A019308BD3C02030009
:104FFC0008B5024B1B689B6A019308BD3C02030079
:10500C0008B5024B1B68DB6A019308BD3C02030028
:10501C0008B5024B1B681B6C019308BD3C020300D6
:10502C0008B5024B1B68DB68019308BD280203001E
:10503C0008B5024B1B689B69019308BD280203004D
:10504C0008B5024B1B68DB69019308BD28020300FD
:10505C0008B5024B1B681B6A019308BD28020300AC
:10506C0008B5024B1B685B6A019308BD280203005C
:10507C0008B5024B1B689B6A019308BD280203000C
:10508C0008B5024B1B68DB6A019308BD28020300BC
:10509C0008B5024B1B681B6B019308BD280203006B
:1050AC0008B5024B1B685B6B019308BD280203001B
:1050BC0008B5024B1B681B6C019308BD280203004A
:1050CC0008B5024B1B681B6D019308BD2802030039
:1050DC0008B5024B1B68DB69019308BD3002030065
:1050EC0008B5024B1B681B6A019308BD3002030014
:1050FC0008B5024B1B681B68019308BD4C020300EA
:10510C0008B5024B1B685B68019308BD4C02030099
:10511C0008B5024B1B689B68019308BD4C02030049
:10512C0008B5024B1B681B69019308BD4C020300B8
:10513C0008B5024B1B685B69019308BD4C02030068
:10514C0008B5024B1B689B69019308BD4C02030018
:10515C0008B5024B1B68DB69019308BD4C020300C8
:10516C0008B5024B1B681B6A019308BD4C02030077
:10517C0008B5024B1B689B6A019308BD4C020300E7
:10518C0008B5024B1B685B6B019308BD6002030002
:10519C0008B5024B1B685B6D019308BD60020300F0
:1051AC0008B5024B1B68DB6E019308BD600203005F
:1051BC0008B5024B1B681B6F019308BD600203000E
:1051CC0008B5024B1B685B68019308BD2002030005
:1051DC0008B5024B1B685B69019308BD20020300F4
:1051EC0008B5024B1B68DB6A019308BD2002030063
:1051FC0008B5034B1B68D3F88830019308BD000039
:10520C002002030008B5034B1B68D3F894300193BC
:10521C0008BD00002002030008B5034B1B68D3F83F
:10522C00B030019308BD00002002030008B5024B0A
:10523C001B685B68019308BD4002030008B5024B74
:10524C001B689B68019308BD4002030008B5024B24
:10525C001B68DB68019308BD4002030008B5024BD4
:10526C001B681B69019308BD4002030008B5024B83
:10527C001B685B69019308BD4002030008B5024B33
:10528C001B689B69019308BD4002030008B5024BE3
:10529C001B68DB69019308BD4002030008B5024B93
:1052AC001B681B6A019308BD4002030008B5024B42
:1052BC001B681B6B019308BD4002030008B5024B31
:1052CC001B685B6B019308BD4002030008B5024BE1
:1052DC001B681B6C019308BD4002030008B5024B10
:1052EC001B685B6C019308BD4002030008B5024BC0
:1052FC001B689B68019308BD4402030008B5024B70
:10530C001B68DB6B019308BD4402030008B5024B1C
:10531C001B681B68019308BD1C02030008B5024BF7
:10532C001B685B68019308BD1C02030008B5024BA7
:10533C001B689B68019308BD1C02030008B5024B57
:10534C001B685B6A019308BD1C02030008B5024B85
:10535C001B68DB6B019308BD1C02030008B5024BF4
:10536C001B681B6C019308BD1C02030008B5024BA3
:10537C001B685B6C019308BD1C0203000022406893
:10538C001146FFF78BBF002240681146FFF796BF0E
:10539C0040680022FFF78ABF4068002281F00101BB
:1053AC00FFF774BF002340681A461946FFF766BF23
:1053BC00002340681A461946FFF758BF0022406880
:1053CC001146FFF74BBF002240681146FFF736BF6E
:1053DC00406800220221FFF739BF002340681A46BB
:1053EC00FFF724BF024B03225A60024A1A6070472F
:1053FC005CE60320A0800B0010B504460846217023
:10540C00FFF766FE00236360204610BD07B50B4610
:10541C0000210246009101208C21FFF7FDFE03B014
:10542C005DF804FB01460020FFF7F0BF0020FFF7FA
:10543C00F9BF0000054B02221A60054B054A9A6021
:10544C000020C3E90000FFF7BBBE00BF70E60320DD
:10545C0064E603200000FFFF10B504460068FFF768
:10546C005DFF204610BD10B50446006808B1FFF77B
:10547C0055FF0023C4E90133236010BD38B5044641
:10548C000D4600680131FFF751FF10B1C4E900056A
:10549C00012038BD10B50368044623B143688B4224
:1054AC0001D3012010BD2046FFF7E8FF0028F9D0FA
:1054BC00A368002BF5D122681370F2E737B50D46BF
:1054CC00114601920446FFF7E5FF019A28B92046E0
:1054DC00FFF7C9FF204603B030BDA2602946206803
:1054EC0002F0DAFA2268A3680021D154F2E738B549
:1054FC00054600680C4668B16A688B689A4207D307
:10550C00096802F048FBA368AB600023A36038BDB8
:10551C00FFF704FF23682B6063686B60A368AB60C4
:10552C000023C4E90033F1E710B50023C0E90033D0
:10553C00044683600373FFF7DAFF204610BD8842F0
:10554C0010B5044605D00B682BB18A681946FFF7D5
:10555C00B5FF204610BDFFF786FFFAE710B5002314
:10556C000446C0E9003383600373FFF7E8FF20466D
:10557C0010BD10B54368013B0446436063B9036832
:10558C009B689847A368013BA3602BB9236820460E
:10559C00DB68BDE81040184710BD70B5D0E900536A
:1055AC00044605EB0316AE4204D02846FFF754FF21
:1055BC001035F8E72068FFF7B1FE204670BD10B536
:1055CC000446006808B1FFF7D4FF204610BD000068
:1055DC00024800230360FFF7ABBC00BF74E6032056
:1055EC00F8B506460D468F180024BD420CD0336822
:1055FC0015F8011B9B6830469847031E01DB1C44C1
:10560C00F3E7002C08BF1C462046F8BD13B5044632
:10561C00084659B1019102F0C6FA23680199DB687A
:10562C000246204602B0BDE81040184702B010BD3B
:10563C0003689B68184738B50D210546FFF7F8FF3E
:10564C000A2104462846FFF7F3FF204438BD30B545
:10565C008BB00023012A8DF8243098BF0A2209ACA4
:10566C000D46B1FBF2F101FB125303F0FF03092BC2
:10567C0094BF30333733DBB2AA4204F8013DEFD983
:10568C002146FFF7C3FF0BB030BD2DE9F04186B0CA
:10569C0000AF05460E46381D142114463B60FFF73B
:1056AC004DFE13280ED8391D2846FFF7AFFF0446D0
:1056BC001EB12846FFF7BFFF044420461837BD46ED
:1056CC00BDE8F08100F1080323F00703E846ADEBD9
:1056DC00030D2246411C3B686846FFF72FFE6946C6
:1056EC002846FFF793FF0446C546E1E78068036848
:1056FC00DB6818477047084611B10B685B681847A0
:10570C007047704770477047704738B504460D4670
:10571C0000682E2102F02BFA2368C31A2B6023B1E8
:10572C00037803B1013023682060184638BD10B5EA
:10573C000C210446FEF7ABFC204610BD10B504212D
:10574C000446FEF7A4FC204610BD10B50421044607
:10575C00FEF79DFC204610BDFFF7FABB08B502F022
:10576C0010FAB0FA80F0400908BD704710B50C462D
:10577C0001F0BCF8844210D001F02AFD844205D11E
:10578C0001F026FDBDE8104001F07BB92CB1236877
:10579C0020465B68BDE81040184710BD0B680360DD
:1057AC004B68436013B15A6801325A60704713B5A5
:1057BC0004460846019102F0F6F90199024620468A
:1057CC0002B0BDE8104001F05DBC13B504460846BC
:1057DC00019102F0E8F923680199DB680246204642
:1057EC0002B0BDE81040184707B503688DF80710E4
:1057FC00DB6801220DF10701984703B05DF804FB4B
:10580C000EB403B503AB002153F8042B006A0193CB
:10581C00FFF73BFF02B05DF804EB03B070470A687A
:10582C0002604A6842600022C0E9022210B502619F
:10583C008C688460CC68C4600C698A60CA6004613E
:10584C000A6110BD2DE9F74FD0E900844FF0140A1E
:10585C0000930AFB04F4184BA41017465C4345460E
:10586C00002C21DD66100AFB06F005EB00093A4618
:10587C00B9F804B0285801915F4528BF5A4602F088
:10588C009AF9002801994FF001030BD15F4503D120
:10589C00009A13703446E3E7FCD9A61B09F11405F2
:1058AC00013EF7E7F9DBF5E7A5EB08050248AD107B
:1058BC00684303B0BDE8F08FCDCCCCCC7FB5036989
:1058CC00057E019103B3F9B1002600F10C04039697
:1058DC0003A901A8FFF719FF0146A8B10DF10B03AD
:1058EC00039A8DF80B602046FFF7ACFF9DF80B3048
:1058FC0053B12368142404FB0034083434F9023CFB
:10590C00002BA8BFDDB2E3E7284604B070BD000051
:10591C0010B5094C2378BFF35B8FDB0709D4204605
:10592C00FEF7C4FB28B12046FEF7C5FB034802F086
:10593C00A5F8034810BD00BF7CE603200F570B00F1
:10594C0078E5032010B5094C2378BFF35B8FDB0798
:10595C0009D42046FEF7AAFB28B12046FEF7ABFB84
:10596C00034802F08BF8034810BD00BF80E603200B
:10597C0077570B007CE5032038B500250446C0E9B9
:10598C000055C0E904558560856140F8245FFFF738
:10599C00CFFAFFF7BDFFE061FFF7D4FF257320625C
:1059AC00204638BD10B50A4C2378BFF35B8FDB075C
:1059BC000CD42046FEF77AFB40B10648FFF7DCFF1B
:1059CC002046FEF778FB044802F058F8014810BD59
:1059DC0078E6032088E60320055F0B00024A0349A2
:1059EC0003480023FFF7E4BBE95C0B00755C0B007C
:1059FC00F55B0B0000231A4619461846FFF7D8BB77
:105A0C0037B58D6804466846FFF7C8FE6A462946D6
:105A1C00204601F057FA01A8FFF7D1FD204603B04C
:105A2C0030BD37B5CD6804466846FFF7B7FE6A4609
:105A3C002946204601F022FA01A8FFF7C0FD2046B6
:105A4C0003B030BD37B50D6904466846FFF7A6FEB6
:105A5C006A462946204601F0BAF901A8FFF7AFFDC6
:105A6C00204603B030BD000070B58AB00D4601462B
:105A7C0004A8FFF7C5FF144E04A801F03BFAE8B1E7
:105A8C0004A96846FFF7CDFF02983146FFF766FE82
:105A9C00044610B12C1E18BF012401A8FFF78FFD7E
:105AAC00002CE9D004A96846FFF7CCFF684601F04A
:105ABC00C4F9286001A8FFF782FDDDE705A8FFF710
:105ACC007EFD0AB070BD00BFD4800B0037B50C460C
:105ADC0020461349154602F054F850B900F006FF61
:105AEC004FF4165100F0F0FE03B0BDE8304000F06A
:105AFC00FDBE0C49204602F044F878B94FF4165319
:105B0C0001A928460193FFF7AFFF01F061FB019952
:105B1C0000F0B4FF01F05CFB03B030BD0020FBE7EC
:105B2C00D9800B00E0800B0070B5D0E9005314262F
:105B3C00044606FB0356AE4205D005F10800FFF7FC
:105B4C00F3FF1435F7E72068FFF7E8FB204670BD3C
:105B5C0010B504460C30FFF7E7FF2046FFF71DFD9C
:105B6C00204610BD10B5044B044640F8043BFFF72B
:105B7C00EFFF204610BD00BFF07F0B0010B50446B0
:105B8C00FFF7F0FF20462421FEF781FA204610BDD6
:105B9C0010B5034B03600446FFF7E4FF204610BD2D
:105BAC007C810B0010B50446FFF7F2FF2046242140
:105BBC00FEF76DFA204610BD0022C0E9002210B598
:105BCC0082600C6804604C6844608C680A604A60AF
:105BDC0084608A6010BD10B5036804461868FFF72E
:105BEC00BFF9204610BD00002DE9F04F87B080466C
:105BFC0003931C4B5B68C3F30803894616466BB9C9
:105C0C00FFF7D0FE044600F12403406A0593FFF72A
:105C1C00A3FD237B2BB105A8FFF7DDFF07B0BDE883
:105C2C00F08F01232373D4E900535FFA89F905EB54
:105C3C00830AAA4512D055F8047B3146381DFFF76C
:105C4C003DFE8145F5D33B68039A0092D3F808B02A
:105C5C004A46334641463846D847EAE70023237381
:105C6C00D9E700BF00ED00E02DE9F74F9B461A4B3A
:105C7C005B68C3F308038046894616466BB9FFF789
:105C8C0091FE044600F12403406A0193FFF764FD82
:105C9C00237B2BB101A8FFF79EFF03B0BDE8F08F6B
:105CAC0001232373D4E90053F6B205EB830A55455F
:105CBC000ED055F8047B5946381DFFF7FFFD864280
:105CCC00F5D33B684A46DB68414638469847EEE7D1
:105CDC0000232373DEE700BF00ED00E02DE9F34164
:105CEC00164B5B68C3F3080305460F461BBBFFF757
:105CFC0059FE00F124030446406A0193FFF72CFD82
:105D0C00D4E90063462406EB8308B04509D101A809
:105D1C00FFF761FFA542B4BF0020012002B0BDE82F
:105D2C00F08156F8040B39460430FFF7C7FD844266
:105D3C00A8BF0446E9E70020F0E700BF00ED00E053
:105D4C00F8B5D0E901539D4204460E460DDB6F1C9D
:105D5C00002F006804DDB900FFF7E8FA18B9F8BDA8
:105D6C00FFF7DCFA00202060A7602768626807EB69
:105D7C0085019200A2EB8502081D01F09BFE47F8FD
:105D8C0025606368013363600120E8E737B500F1F3
:105D9C0024030446406A01930D46FFF7DDFCD4E969
:105DAC00003203EB8202934219460BD00968A942D8
:105DBC0003F10403F7D101A8FFF70DFF00252846D6
:105DCC0003B030BD29462046FFF7BAFF0546002830
:105DDC00F1D06368012B01D1FFF700FE01A8FFF79A
:105DEC00FAFEECE770B50446D0E900020B4600EB76
:105DFC00820282420FD001461D6851F8046BAE42FC
:105E0C0007D1521A01F056FE6368013B6360012012
:105E1C0070BD0846EDE70020FAE71FB500F124033A
:105E2C000446406A01910393FFF796FC01A92046B2
:105E3C00FFF7D8FF18B163680BB9FFF7DBFD03A8B8
:105E4C00FFF7C9FE04B010BD70B5D0E90456182395
:105E5C00044603FB0656AE4215D005F11001204650
:105E6C00FFF7C0FF63680BB9FFF7C4FDE069296950
:105E7C000368DB689847696919B1206A0368DB68B5
:105E8C0098471835E7E7D4E90453182606FB035660
:105E9C00AE4204D02846FFF7DFFA1835F8E70023A6
:105EAC00636170BD73B50446FFF7A4FD04F12403D0
:105EBC00606A0193FFF750FC2046FFF7C5FF01A86D
:105ECC00FFF789FE606A08B1FFF73AF8D4E904538A
:105EDC00182606FB0356AE4204D02846FFF7BCFA40
:105EEC001835F8E72069FFF719FA2068FFF716FA5A
:105EFC00204602B070BD00000148FFF7D3BF00BFC1
:105F0C0088E603208842F8B504460D46164615D996
:105F1C00904214D2A2F11406751AA1F114072C4464
:105F2C00B7421AD01CB131462046FFF778FC06F177
:105F3C000800FFF7F9FD143E143CF1E70DD0B54213
:105F4C000BD01CB129462046FFF769FC05F108006F
:105F5C00FFF7EAFD14351434F1E7F8BD8842F8B5C3
:105F6C0004460D46164614D9904213D2A2F11006DF
:105F7C00751AA1F110072C44B74218D01CB1314648
:105F8C002046FFF7D1FA3046FFF766FA103E103C78
:105F9C00F2E70CD0B5420AD01CB129462046FFF7D7
:105FAC00C3FA2846FFF758FA10351034F2E7F8BD5B
:105FBC0070B50E1E054611DD3001FFF7A7F904463A
:105FCC0058B1D5E9001201EB0212FFF7C7FF2868A0
:105FDC00FFF7A4F92C60AE60012070BD0024F6E739
:105FEC002DE9F04F904695B000230391D8F804109A
:105FFC000A9346229942C0E90033C0E90233C0E952
:10600C000433CDE908330446027623DCD8E9005783
:10601C00142303FB0757AF423BD029460BA8FFF7CD
:10602C0083FA0BA90FA8099EFFF77EFADDE9091385
:10603C0099421BDA089B099A03EB061603EB021232
:10604C00314606F11000FFF789FFEEB9099B0133C9
:10605C00099311E008A8FFF7ABFF0028D6D108A8D8
:10606C00FFF79BFA204615B0BDE8F08F013108A868
:10607C00FFF79EFF0028DDD10FA8FFF7EDF90BA865
:10608C00FFF7EAF91435C6E70FA93046FFF74CFACB
:10609C00DCE70026CDE90B660D964FF01409DDE91F
:1060AC0008239E427CDA3301D35806930BB9013690
:1060BC00F5E70023079309FB06F302930BAD07A941
:1060CC0006A8FFF722FB82460028F0D04FF0000311
:1060DC008DF817300146079A0DF117032846FFF784
:1060EC00B1FB9DF817700190002F4AD1BDF81C3000
:1060FC00ADF84030CDE911774FF6FF73CDF83CA0E9
:10610C00ADF842301397D5E90132934217DB03F116
:10611C00010ABAF1000F30DD09FB0AF0FFF7F6F8BF
:10612C00834660B3D5E9001209FB0212FFF7EAFEC1
:10613C002868FFF7F3F8C5F800B0C5F808A02B687D
:10614C00019A09FB023A6A68514609FB02320AF1CC
:10615C001400FFF7D7FEBAF1000F03D00FA9504679
:10616C00FFF75DFB6B6801336B6011A8FFF7DCFC7C
:10617C003FB10BA8FFF7D8FC71E7BB46D8E7012766
:10618C00F3E7019B2D6809FB0355069B1B782BB984
:10619C00D8F80030029A13441B7CEB8008358EE74C
:1061AC002168226062686360A36809920A9A0A9364
:1061BC00E368A2600B9A0B932369E2600C9A0C9330
:1061CC00636922610D9A0D93039B0891626123769A
:1061DC00CFE70000F0B5044687B00D4626461946B9
:1061EC0068461746FEF723FA0B4B46F8043B694604
:1061FC0003A8FEF71CFA03AA39463046FFF7F0FE57
:10620C0003A8FEF7D3F96846FEF7D0F9034B2360D9
:10621C002046256207B0F0BDF07F0B0064810B00B7
:10622C00F0B50F4685B01D490A9C384616461D46EA
:10623C0001F0A7FCC0B9A4B1294601A8FFF7BCFC2A
:10624C001749242001F028F8054630B101AB32463D
:10625C002146FFF7BFFF134B2B6001A8FEF7A6F9F1
:10626C002C46204605B0F0BD0F49384601F089FC9C
:10627C0090B9002CF5D0294601A8FFF79DFC0849E0
:10628C00242001F009F805460028E6D001AB32467F
:10629C002146FFF79FFFE0E70024E2E7E8800B00D0
:1062AC00F5820B007C810B00EC800B00014B024A49
:1062BC001A60704784E60320FD800B002DE9F0473F
:1062CC00089DD0F8209004460E461746984600F0DC
:1062DC000DFB81454CD02B79190704D56A695449BB
:1062EC002046FFF78DFAB8F1000F0DD05B21204648
:1062FC00FFF77AFA41462046FFF767FA23684D49C3
:10630C00DB680222204698472B79DA0723D5D5F88B
:10631C0008802F21404601F062FC08B100F1010811
:10632C0041462046FFF751FA2B799B0708D53A21B5
:10633C002046FFF759FAEA683F492046FFF760FA12
:10634C002A79236812F0040FDB6814BF3B493C49DF
:10635C000222204698472B7958071DD529690B46F0
:10636C001A4613F8010B60B1202808D11946F7E73B
:10637C00344800F044FC0028ADD0BDE8F087282854
:10638C00EED12368521ADB682046984723682E49C1
:10639C00DB6804222046984700213846FEF700FFB0
:1063AC0001462046FFF711FA23682549DB680222D3
:1063BC00204698471EB131462046FFF706FA2B7946
:1063CC0013F0300F2CD023682049DB6802222046C2
:1063DC0098472B79D9060AD523681D49DB68072213
:1063EC0020469847AA691B492046FFF709FA2B79E2
:1063FC009A0611D5DB0605D523681049DB68022205
:10640C002046984723681449DB6820460A2298479F
:10641C00E9692046FFF7D9F95D212046FFF7E4F939
:10642C0023680E49DB6820460222BDE8F047184776
:10643C0001810B0008810B000B810B000E810B00FE
:10644C0013810B0014E7032011810B0016810B0044
:10645C0019810B00617E0B0021810B002C810B003C
:10646C002DE9F04385B0D0F820900C9C05460F46E2
:10647C0090461E4600F03AFA814505D1494800F095
:10648C00BEFB002840F08A802B6A474A01924FF0ED
:10649C00000901A803938DF8089000F054FD4946BB
:1064AC004046FEF77DFE41498046012201A800F0DE
:1064BC00D9FD4146FFF77BF93FB13D49012201A8C7
:1064CC0000F0D0FD3946FFF772F93EB1394901228F
:1064DC0001A800F0C7FD3146FFF769F92379DF0702
:1064EC000ED5A6682F21304601F079FB00B1461C71
:1064FC003149012201A800F0B5FD3146FFF757F9EB
:10650C0023799E0707D52D49022201A800F0AAFD88
:10651C00E16800F025FD2379580714D52669334628
:10652C001F4613F8012B2AB1202A01D11E46F7E78A
:10653C00282AF5D12249022201A800F093FDBA1BAA
:10654C00314600F09FFD2379190707D51D4901221B
:10655C0001A800F087FD616900F014FD2379DA06CB
:10656C0008D5042218490DEB020000F07BFDA1694F
:10657C0000F0F6FC23799B0607D51449062201A8E6
:10658C0000F070FDE169FFF712F901A800F0C5FCFD
:10659C00286A0F4903680222DB68984705B0BDE8FA
:1065AC00F08300BF14E703204C810B00DE800B004E
:1065BC00F17E0B0088830B002F810B0031810B00C7
:1065CC0034810B00D47F0B0037810B003C810B0016
:1065DC002C810B00024B1A68024B1A60704700BFEB
:1065EC0080E50320B0E603200021FEF7F1BD00009A
:1065FC00014B00229A607047B4E60320014B1860EF
:10660C00704700BF84E5032008B50B4B43B100F085
:10661C006DF903681B699847002801DDAFF3008012
:10662C00064B43B100F0D4FD03681B699847002862
:10663C0001DDAFF3008008BD000000000000000089
:10664C0008B5FFF7E1FFFEF763FC014B186008BDCE
:10665C0040E703200548064A064908B5121A01F01E
:10666C001BFA054B054A1A6008BD00BF00F4032055
:10667C0004F40320E4840B0000F403201E1C279A6E
:10668C0007B5002300931A466FF07701FEF7BAFDA9
:10669C0003B05DF804FB000007B543880A2B08D053
:1066AC00502B0BD1094B1B684BB103B05DF804EBBD
:1066BC001847FFF7E5FF03B05DF804FB00230093D8
:1066CC001A466FF07701FEF79DFDF4E7C8E603204C
:1066DC0010B512480021FEF749FE114B1A68114BF8
:1066EC009A42114B0CBF012200221A7001D0FFF705
:1066FC00B1FFFEF7FDFB044601F0FEF90B4B13B1A5
:10670C002046AFF3008000210848FEF7F7FDBDE8F6
:10671C00104007480021FEF76BBD00BF09660B0057
:10672C0000F403201E1C279AC4E60320000000007E
:10673C00A5660B00704710B518210446FDF7A7FCA1
:10674C00204610BDF0B5037D062B8DB00E4600F132
:10675C0004074FF0000412D000F1080515F8011DD4
:10676C000A223046FEF773FFAF42044419D0002CC6
:10677C00F4D02E213046FEF75BFF0444EEE72F23C6
:10678C006A4639460A208DF80040FEF7F1FB684650
:10679C0001F009FA33680246DB68694630469847CF
:1067AC00044620460DB0F0BD10B5054B0446112231
:1067BC0040F8043B002101F097F9204610BD00BFC2
:1067CC00E0810B000346074A10B543F8042B01F196
:1067DC00100251F8044B43F8044B9142F9D10A785A
:1067EC001A7010BDE0810B0010B59DF8084044EA0A
:1067FC00032343EA024242EA016104234160037528
:10680C0010BD000007B5064B0360CB7800938B7866
:10681C004A780978FFF7E8FF03B05DF804FB00BF86
:10682C00E0810B00417470477047704708B5002138
:10683C00007CFEF785FC40EAE07008BD08B501213C
:10684C00007CFEF77DFC40EAE07008BD08B5007CDA
:10685C00FEF76EFC20EAE07008BD08B5007CFEF780
:10686C005FFC20EAE07008BD13B50446007C019182
:10687C00FEF75EFC0028019901DC607C20B1207CD5
:10688C00FEF766FC20EAE07002B010BD007CFEF75B
:10689C0067BC10B514210446FDF7F9FB204610BD6A
:1068AC0010B54FF47A73044608460021C4E901136D
:1068BC00044B23600123207463741146FEF718FC0B
:1068CC00204610BDF4810B00007C0022FEF718BCA2
:1068DC00007CFEF71DBC007CFEF74ABC10B51422F0
:1068EC000446002101F000F9204610BD10B50F4CF4
:1068FC0088B003A8FFF7F2FF2178BFF35B8F11F08C
:10690C0001010FD120460191FDF7D0FB019948B14F
:10691C0003AA0748FFF7C4FF2046FDF7CCFB054848
:10692C0001F0ACF8024808B010BD00BFCCE6032063
:10693C00D0E6032035680B00002240681146FEF7B4
:10694C008DBC002240681146FEF7A8BC00224068AE
:10695C001146FEF7B3BC40680022FEF7A7BC4068A6
:10696C00002281F00101FEF791BC002340681A4619
:10697C001946FEF783BC002340681A461946FEF7F9
:10698C0075BC002240681146FEF758BC40680022D6
:10699C000221FEF75BBC002340681A46FEF746BC9A
:1069AC00084B10B5282422461846002101F09CF80B
:1069BC00054B04804FF0FF32426004225A60034AB8
:1069CC001A6010BDECE60320E4E6032024820B00E1
:1069DC0070474174704708B5007CFEF709FB20EA4C
:1069EC00E07008BD08B5007CFEF7DAFA20EAE0702A
:1069FC0008BD08B5007CFEF7E3FA40EAE07008BD7C
:106A0C0008B5007CFEF7D4FA40EAE07008BD007CC3
:106A1C00FEF7DEBA37B5457C04462DB1207C03B0B9
:106A2C00BDE83040FEF7B4BA007C0191FEF7E0FA05
:106A3C0000280199F2DC284603B030BD10B51421B2
:106A4C000446FDF724FB204610BD000010B54FF4A2
:106A5C007A730446084611460022C4E90123044B0C
:106A6C002360012320746374FEF7D2FA204610BD14
:106A7C0060820B00007C0023FEF7C2BA0022FFF7F5
:106A8C00F9BF007CFEF77CBA7047F8B50646154690
:106A9C000C468F18BC4206D0336814F8011B9B6857
:106AAC0030469847F6E72846F8BD007C0022FEF7F2
:106ABC00CFBA007C0021FEF7D3BA007C0021FEF790
:106ACC00D7BA007C0021FEF7DBBA007C0021FEF770
:106ADC00DFBA10B514210446FDF7D9FA204610BDD3
:106AEC0038B5044615464FF47A730022C4E90123E5
:106AFC00094B2174084623602946FEF7D9FABF30AA
:106B0C0008D16B69DB0705D56868FEF707FCE868F8
:106B1C00FEF704FC204638BD90820B000023007C5D
:106B2C001A461946FEF77CBA7FB500221423CDE92C
:106B3C000122ADF804300B788DF808304B680393C4
:106B4C00CB680493007C0B7A059301A9FEF7B8FA85
:106B5C0007B05DF804FB1FB5003B8DF800104FF03B
:106B6C006401039118BF0123694601928DF8083026
:106B7C00FFF7DAFF05B05DF804FB0123FFF7EBBF6D
:106B8C00007C0022FEF754BA007C0022FEF758BAB3
:106B9C00002340681A46FEF749BB406800220221D8
:106BAC00FEF754BB002240681146FEF747BB00229B
:106BBC0040681146FEF752BB002340681A4619463E
:106BCC00FEF754BB002340681A461946FEF756BB25
:106BDC0040680021FEF77ABB40680021FEF77EBBBF
:106BEC004068002281F00101FEF750BB4068002292
:106BFC00FEF75CBB002240681146FEF75FBB00222B
:106C0C0040681146FEF74ABB2DE9F04395B0144697
:106C1C000D460746FFF7C8FD00211C220DA8009168
:106C2C0000F062FF40230C9320466B460CAA002117
:106C3C00FEF736F9044600284BD10246012168685C
:106C4C00FEF70CFB0221804622466868FEF706FB25
:106C5C00009E81462146002E3BD0002939D1736815
:106C6C00022B03D00A2B11D0F669F4E7B8F1000F10
:106C7C00FAD0716906A8043107ADFFF7C3FD0FCD3B
:106C8C003C1D0FC42B6823704146EDE7B9F1000F92
:106C9C00EAD07469102201A800F026FF06238DF8B3
:106CAC00143001AD04F108031834186859682A46E9
:106CBC0003C20833A3421546F7D101A906A807ADB4
:106CCC00FFF780FD0FCD3C1D0FC42B682370494688
:106CDC00CAE70098FEF7DCF8384615B0BDE8F0833B
:106CEC00024B034A1A6000225A60704714E70320D3
:106CFC00B8820B0000F11003012213F8101C0129BB
:106D0C00184608D153F8041C02EB4102013A03F176
:106D1C001003F2D17047022904BF53F8041C521817
:106D2C00F4E70EB4F0B588B000AF07F134051021CC
:106D3C0055F8042B7A6004462B467818FD60FEF754
:106D4C00FDFA0F287A681AD900F1080323F007031B
:106D5C006E46ADEB030D411C2B466846FD60FEF7FD
:106D6C00EDFA021E04DD236869469B6820469847AD
:106D7C00B5462037BD46BDE8F04003B0704700284B
:106D8C00F7D0236802469B6807F11001204698470C
:106D9C00EFE738B50B6803604D6843689D420446C5
:106DAC0008D015B16B6801336B60606808B1FEF7F1
:106DBC00E0FB656038BD07B503688DF807109B686C
:106DCC0001220DF10701984703B05DF804FB0B4657
:106DDC001146002210B5C0E90022044683600BB9AD
:106DEC00204610BDFFF7D5FFFAE78368EBB11A78A0
:106DFC00032A1AD8DFE802F00417021B052070479B
:106E0C0002685B685268D05C2D2812D0A0F1300368
:106E1C00092B0ED974280ED066280CD0A0F16E0365
:106E2C005842584170470620704700207047042094
:106E3C007047032070470220704710B50446FFF7D7
:106E4C00D4FF02280ED0C31EDBB2012B14D822684B
:106E5C00A36850685B68BDE810400A220021184402
:106E6C0000F054BF2268A36852685B68D05CA0F144
:106E7C0074035842584110BD0020FCE738B500237C
:106E8C00C0E9003304460E48C4E90203A9B10B78EB
:106E9C00032B06D08BB9136858684B68C35C6E2BF8
:106EAC0007D013684D6858688B6828445B1BA0603A
:106EBC00E36011462046FFF76CFF204638BD00BF4B
:106ECC002E810B0038B500250B46C0E90055C0E9F2
:106EDC000255C0E90455044611464BB11A78012AF3
:106EEC0006D103F11002DB6882604361FFF751FFAA
:106EFC00204638BD10B54369044663B18068E06034
:106F0C00013B1030A0602061636113B1FFF7F2FE0A
:106F1C00A060012000E0184610BD10B57D2104468C
:106F2C00FFF749FF01232371204610BD08B50379F3
:106F3C00012B02D0022B04D008BD2C21FFF73BFF04
:106F4C00FAE73A21FAE710B50446FFF7EFFF2046BF
:106F5C007B21FFF730FF00232371204610BD00007A
:106F6C0013B504460191FFF7E1FF2368019ADB6832
:106F7C0003492046984701232046237102B010BDD7
:106F8C000B810B0013B504460191FFF7CFFF23686B
:106F9C00019ADB6803492046984701232046237158
:106FAC0002B010BDEC820B002DE9F0470D462221FA
:106FBC0090460446FFF7FFFEDFF8A490A8442F4646
:106FCC004745BA463DD017F8016B222E06D05C2EF1
:106FDC0004D0304600F058FD0028F1D12368AAEB0C
:106FEC0005029B682946204698475C212046FFF7FE
:106FFC00E2FE0D2E0AD8072E1CD9A6F10803052B8C
:10700C0018D8DFE803F00D0F11171315222E01D03D
:10701C005C2E0FD131462046FFF7CDFE3D46CFE723
:10702C006221F8E77421F6E76E21F4E76621F2E7B6
:10703C007221F0E723683246DB68494620469847C0
:10704C00ECE7BD4205D023687A1B9B682946204695
:10705C00984722212046FFF7AEFEBDE8F08700BF1F
:10706C00EF820B0013B50446CDE90021FFF75EFF5C
:10707C002046DDE90021FFF797FF0223204623710C
:10708C0002B010BD13B50446CDE90021FFF74EFF49
:10709C002046DDE90021FFF787FF012320462371FD
:1070AC0002B010BD232813B502D9002002B010BDC8
:1070BC00A0F10B03022B1AD8174C2178BFF35B8F6E
:1070CC0011F001010BD120460191FCF7EFFF019962
:1070DC0028B11248FEF790F92046FCF7ECFF0F4B55
:1070EC001878FDF7FDFF0028DFD10120DEE701282D
:1070FC0009D800F0ADF80021007CFDF7D1FF80F03D
:10710C000100C0B2D2E709380128EED800F060F8CF
:10711C00007CFDF765FFF2E71CE7032020E7032066
:10712C00232838B504460D460AD8FF2908D0FFF7A6
:10713C00B9FF28B129462046BDE83840FDF7B8BE56
:10714C0038BD38B504460D46FDF7BAFEFF2810D001
:10715C00062804D84D2323FA00F0C30709D420468F
:10716C00FFF7A0FF28B129462046BDE83840FDF7BF
:10717C00AFBE38BD10B50446FDF7A2FE031FDBB24F
:10718C00012B08D92046FFF78DFF20B12046BDE822
:10719C001040FDF7A5BE002010BD704738B5044661
:1071AC0014252A46002100F09FFC25804025074924
:1071BC0025812846258200F071F804496060284634
:1071CC0000F06CF8E060204638BD00BFF5820B0083
:1071DC0030B50E4D2978BFF35B8F11F0010487B0E9
:1071EC0011D12846FCF762FF68B101A8FFF7D6FF62
:1071FC0001AA21460648FFF729FC2846FCF75BFF4D
:10720C00044800F03BFC024807B030BD28E70320DF
:10721C002CE70320A7710B007047000038B50A4B10
:10722C0003600123044643610849202000F036F82E
:10723C00202560600549A560284600F02FF8C4E9B8
:10724C000305204638BD00BF18000100F5820B0075
:10725C0030B50E4D2978BFF35B8F11F0010487B068
:10726C0011D12846FCF722FF68B16846FFF7D6FF1C
:10727C006A4621460648FFF733FC2846FCF71BFFFD
:10728C00044800F0FBFB024807B030BD44E7032084
:10729C0048E7032025720B00FCF7F5BEFCF7F5BEA2
:1072AC0081F0004102E000BF83F0004330B54FEAAB
:1072BC0041044FEA430594EA050F08BF90EA020F18
:1072CC001FBF54EA000C55EA020C7FEA645C7FEAAB
:1072DC00655C00F0E2804FEA5454D4EB5555B8BFCE
:1072EC006D420CDD2C4480EA020281EA030382EA3F
:1072FC00000083EA010180EA020281EA0303362DD1
:10730C0088BF30BD11F0004F4FEA01314FF4801CA3
:10731C004CEA113102D0404261EB410113F0004FB5
:10732C004FEA03334CEA133302D0524263EB43036C
:10733C0094EA050F00F0A780A4F10104D5F1200E0A
:10734C000DDB02FA0EFC22FA05F2801841F1000165
:10735C0003FA0EF2801843FA05F359410EE0A5F139
:10736C0020050EF1200E012A03FA0EFC28BF4CF06A
:10737C00020C43FA05F3C01851EBE37101F0004520
:10738C0007D54FF0000EDCF1000C7EEB00006EEB2D
:10739C000101B1F5801F1BD3B1F5001F0CD34908B7
:1073AC005FEA30004FEA3C0C04F101044FEA44520E
:1073BC0012F5800F80F09A80BCF1004F08BF5FEA95
:1073CC00500C50F1000041EB045141EA050130BD75
:1073DC005FEA4C0C404141EB0101013C28BFB1F587
:1073EC00801FE9D291F0000F04BF01460020B1FAD2
:1073FC0081F308BF2033A3F10B03B3F120020CDAA5
:10740C000C3208DD02F1140CC2F10C0201FA0CF082
:10741C0021FA02F10CE002F11402D8BFC2F1200CE7
:10742C0001FA02F120FA0CFCDCBF41EA0C0190409D
:10743C00E41AA2BF01EB0451294330BD6FEA0404E6
:10744C001F3C1CDA0C340EDC04F11404C4F12002D1
:10745C0020FA04F001FA02F340EA030021FA04F3E3
:10746C0045EA030130BDC4F10C04C4F1200220FA3A
:10747C0002F001FA04F340EA0300294630BD21FA78
:10748C0004F0294630BD94F0000F83F4801306BF3E
:10749C0081F480110134013D4EE77FEA645C18BF32
:1074AC007FEA655C29D094EA050F08BF90EA020FC9
:1074BC0005D054EA000C04BF1946104630BD91EAC1
:1074CC00030F1EBF0021002030BD5FEA545C05D1C4
:1074DC004000494128BF41F0004130BD14F5800403
:1074EC003CBF01F5801130BD01F0004545F0FE4177
:1074FC0041F470014FF0000030BD7FEA645C1ABFAC
:10750C00194610467FEA655C1CBF0B46024650EAE2
:10751C00013406BF52EA033591EA030F41F400210E
:10752C0030BD00BF90F0000F04BF0021704730B594
:10753C004FF4806404F132044FF000054FF0000169
:10754C0050E700BF90F0000F04BF0021704730B52A
:10755C004FF4806404F1320410F0004548BF4042FF
:10756C004FF000013EE700BF42004FEAE2014FEA54
:10757C0031014FEA02701FBF12F07F4393F07F4F2F
:10758C0081F06051704732F07F4208BF704793F032
:10759C007F4F04BF41F40021704730B54FF4607445
:1075AC0001F0004521F000411CE700BF50EA010248
:1075BC0008BF704730B54FF000050AE050EA0102F1
:1075CC0008BF704730B511F0004502D5404261EB61
:1075DC0041014FF4806404F132045FEA915C3FF4A2
:1075EC00D8AE4FF003025FEADC0C18BF03325FEA3F
:1075FC00DC0C18BF033202EBDC02C2F1200300FAF0
:10760C0003FC20FA02F001FA03FE40EA0E0021FA14
:10761C0002F11444BDE600BF70B54FF0FF0C4CF402
:10762C00E06C1CEA11541DBF1CEA135594EA0C0FB4
:10763C0095EA0C0F00F0DEF82C4481EA030621EAEF
:10764C004C5123EA4C5350EA013518BF52EA03352A
:10765C0041F4801143F4801338D0A0FB02CE4FF0DC
:10766C000005E1FB02E506F00042E0FB03E54FF00C
:10767C000006E1FB03569CF0000F18BF4EF0010E04
:10768C00A4F1FF04B6F5007F64F5407404D25FEA00
:10769C004E0E6D4146EB060642EAC62141EA5551B3
:1076AC004FEAC52040EA5E504FEACE2EB4F1FD0CF5
:1076BC0088BFBCF5E06F1ED8BEF1004F08BF5FEA73
:1076CC00500E50F1000041EB045170BD06F0004625
:1076DC0046EA010140EA020081EA0301B4EB5C04D2
:1076EC00C2BFD4EB0C0541EA045170BD41F48011CA
:1076FC004FF0000E013C00F3AB8014F1360FDEBFEF
:10770C00002001F0004170BDC4F10004203C35DACA
:10771C000C341BDC04F11404C4F1200500FA05F34D
:10772C0020FA04F001FA05F240EA020001F00042EE
:10773C0021F0004110EBD37021FA04F642EB060164
:10774C005EEA430E08BF20EAD37070BDC4F10C048E
:10775C00C4F1200500FA04F320FA05F001FA04F252
:10776C0040EA020001F0004110EBD37041F100013E
:10777C005EEA430E08BF20EAD37070BDC4F1200549
:10778C0000FA05F24EEA020E20FA04F301FA05F2B1
:10779C0043EA020321FA04F001F0004121FA04F259
:1077AC0020EA020000EBD3705EEA430E08BF20EA29
:1077BC00D37070BD94F0000F0FD101F00046400063
:1077CC0041EB010111F4801F08BF013CF7D041EAE5
:1077DC00060195F0000F18BF704703F000465200E9
:1077EC0043EB030313F4801F08BF013DF7D043EABA
:1077FC000603704794EA0C0F0CEA135518BF95EA70
:10780C000C0F0CD050EA410618BF52EA4306D1D1F6
:10781C0081EA030101F000414FF0000070BD50EA15
:10782C00410606BF1046194652EA430619D094EA9F
:10783C000C0F02D150EA013613D195EA0C0F05D189
:10784C0052EA03361CBF104619460AD181EA0301DD
:10785C0001F0004141F0FE4141F470014FF0000095
:10786C0070BD41F0FE4141F4780170BD70B54FF030
:10787C00FF0C4CF4E06C1CEA11541DBF1CEA1355B0
:10788C0094EA0C0F95EA0C0F00F0A7F8A4EB050492
:10789C0081EA030E52EA03354FEA013100F0888089
:1078AC004FEA03334FF0805545EA131343EA126352
:1078BC004FEA022245EA111545EA10654FEA002607
:1078CC000EF000419D4208BF964244F1FD0404F5C0
:1078DC00407402D25B084FEA3202B61A65EB03051C
:1078EC005B084FEA32024FF480104FF4002CB6EBD9
:1078FC00020E75EB030E22BFB61A754640EA0C0059
:10790C005B084FEA3202B6EB020E75EB030E22BF98
:10791C00B61A754640EA5C005B084FEA3202B6EBD9
:10792C00020E75EB030E22BFB61A754640EA9C0098
:10793C005B084FEA3202B6EB020E75EB030E22BF68
:10794C00B61A754640EADC0055EA060E18D04FEA26
:10795C00051545EA16754FEA06164FEAC30343EAC6
:10796C0052734FEAC2025FEA1C1CC0D111F4801F93
:10797C000BD141EA00014FF000004FF0004CB6E78C
:10798C0011F4801F04BF01430020B4F1FD0C88BF2B
:10799C00BCF5E06F3FF6AFAEB5EB030C04BFB6EB36
:1079AC00020C5FEA500C50F1000041EB045170BD29
:1079BC000EF0004E4EEA113114EB5C04C2BFD4EB56
:1079CC000C0541EA045170BD41F480114FF0000EDA
:1079DC00013C90E645EA060E8DE60CEA135594EA56
:1079EC000C0F08BF95EA0C0F3FF43BAF94EA0C0F59
:1079FC000AD150EA01347FF434AF95EA0C0F7FF4CE
:107A0C0025AF104619462CE795EA0C0F06D152EA21
:107A1C0003353FF4FDAE1046194622E750EA410605
:107A2C0018BF52EA43067FF4C5AE50EA41047FF416
:107A3C000DAF52EA43057FF4EBAE12E74A0011D2C8
:107A4C0012F5001211D20DD56FF47873B3EB6252AC
:107A5C000ED44FEAC12343F0004343EA505323FAB8
:107A6C0002F070474FF00000704750EA013002D12D
:107A7C004FF0FF3070474FF0000070470023014675
:107A8C001A46184600F04CB9024B1844407800F0E6
:107A9C00970070478A830B000A44914200F1FF3330
:107AAC0000D1704710B511F8014B03F8014F91420A
:107ABC00F9D110BD884210B501EB020402D9844201
:107ACC00234607D8431EA14208D011F8012B03F816
:107ADC00012FF8E7024401468A4200D110BD13F889
:107AEC00014D02F8014DF7E702440346934200D1E1
:107AFC00704703F8011BF9E738B5104B1D68AB6BE9
:107B0C000446B3B91820FDF701FC0246A86320B95E
:107B1C000B4B0C484221FDF721FC0B490B4BC0E9E8
:107B2C0000130B4B83600B23838100210120C2E9DE
:107B3C000401AB6B00221C615A6138BD84E5032043
:107B4C00F6820B000D830B000E33CDAB34126DE6B9
:107B5C00ECDE0500C9B2034610F8012B1AB18A42BB
:107B6C00F9D118467047002918BF0023F9E710B562
:107B7C000446FFF7EFFF18B9204600F014F8204434
:107B8C0010BD10F8012B11F8013B012A28BF9A42B5
:107B9C00F7D0D01A7047034611F8012B03F8012BCC
:107BAC00002AF9D17047034613F8012B002AFBD1A8
:107BBC00181A0138704710B57AB103460139841888
:107BCC0013F8010B11F8012F904201D1A34201D1FE
:107BDC00801A10BD0028F3D1FAE71046F9E738B542
:107BEC0003460C4669B9BDE83840FFF7B3BF431CE8
:107BFC00054621461846FFF7ADFF0028F7D1284669
:107C0C0038BD0025F5E70000012B2DE9F04701D028
:107C1C00242B06D9FDF79AFB162303600020BDE840
:107C2C00F087DFF8E4C00D462E4615F8014B14F82A
:107C3C000C7017F00807F7D12D2C32D12C780127B6
:107C4C00B51C002B5BD0102B09D1302C07D12C7814
:107C5C0004F0DF04582C4DD16C781023023507F159
:107C6C00004808F1FF384FF0000CB8FBF3F96646FA
:107C7C0003FB198AA4F1300EBEF1090F16D8744615
:107C8C00A34224DDBCF1000F1EDBB1451CD301D196
:107C9C00A24519DB06FB03464FF0010C15F8014B0E
:107CAC00E8E72B2C04BF2C78B51CCAE7A4F1410ED5
:107CBC00BEF1190F01D8373CE2E7A4F1610EBEF119
:107CCC00190F04D8573CDBE74FF0FF3CE6E7BCF15B
:107CDC00000F05DA22230360464642B930469EE780
:107CEC0007B17642002AF9D0BCF1000F00D0691E12
:107CFC001160F3E73024002BB1D10823AFE7302C0F
:107D0C00A5D00A23ABE700BF8B830B0013460A46B2
:107D1C00014602480068FFF777BF00BF84E50320E7
:107D2C002DE9F843DFF8B8800646D8F800001F4666
:107D3C000D46914600F056F8254B1C6834B9254C7D
:107D4C001C60254B13B11B68C4F8883063681F2B6B
:107D5C0007DDD8F8000000F047F84FF0FF30BDE821
:107D6C00F8834EB3D4F8880088B91C4B23B9D8F8E3
:107D7C00000000F038F8F0E74FF48470FDF7C6FA15
:107D8C000028F4D00023C0E94033C4F888006368AD
:107D9C0040F8239001229A4000EB8301D0F8003187
:107DAC001343C0F80031022EC1F8807002BFD0F826
:107DBC0004311343C0F804316368D8F800005A1C2E
:107DCC000233626044F8235000F00EF80020C6E73E
:107DDC00E8E703205CE703200000000019530B00C8
:107DEC00E8E5032070477047704700001D400B000A
:107DFC0059400B0081400B0085400B000000000037
:107E0C0043616C6C206F6E207075726520766972A0
:107E1C007475616C00696E6372656173656420745E
:107E2C006F0064656372656173656420746F0045EF
:107E3C0072726F7220696E206F63637570616E630E
:107E4C0079207374617465004F63637570616E6340
:107E5C007920257320256900000000000000000037
:107E6C00C9400B00CB400B0053656E736F722054EE
:107E7C00696D6564206F7574004F63637570616E16
:107E8C006379207374617465206368616E676564DF
:107E9C002066726F6D20256420746F202564202865
:107EAC0025696D6D202F2025696D6D290054617237
:107EBC00676574207A6F6E6520697320636C6561E9
:107ECC00722077697468207A6F6E65312061742036
:107EDC0025696D6D20616E64207A6F6E653220614C
:107EEC00742025696D6D00546172676574207A6F1A
:107EFC006E65206E6F7420636C656172202D207727
:107F0C00696C6C20776169742074656E207365638D
:107F1C006F6E647320616E64207472792061676186
:107F2C00696E0053656E736F72206572726F72208A
:107F3C00726573657420696E203130207365636FD0
:107F4C006E64730053656E736F7220696E69742072
:107F5C007375636365737366756C6C7900427566D3
:107F6C006665722069732066756C6C202D207769AC
:107F7C006C6C206E6F772063616C696272617465E2
:107F8C000043616C6962726174696F6E20436F6D3E
:107F9C00706C65746500496E697469616C2063610D
:107FAC006C6962726174696F6E206661696C65647C
:107FBC00202D207761697420313020736563732024
:107FCC00616E64207265736574000000000000002F
:107FDC0000000000E9410B00EB410B000000000029
:107FEC00000000000000000000000000A1400B0099
:107FFC006D440B00000000000000000079440B00F1
:10800C00AD440B00C9620B006F440B000001010171
:10801C0002000208000810010100000000FF000F20
:10802C000000000000200B0000020A2100000500E7
:10803C00000000C8000038FF010008000001DB0F41
:10804C0001F10D0168008008B8000000000F8900E4
:10805C00000000000000010F0D0E0E000002C7FF13
:10806C009B00000001000000000000000000000068
:10807C009F4D0B007F4D0B00694D0B00254D0B00E8
:10808C005B4D0B00414D0B00274D0B000000000019
:10809C0000000000E7530B00DD530B00D3530B0023
:1080AC00C9530B00BD530B00B1530B00DD6B0B0020
:1080BC00E56B0B00A5530B009D530B0093530B006A
:1080CC0089530B00156C0B0062617564005365726B
:1080DC0069616C0053657269616C31004A534F4E93
:1080EC0053747265616D4C6F6748616E646C657238
:1080FC000061707000253031307520005D20002546
:10810C0064002C200028293A2000205B00636F6457
:10811C0065203D200064657461696C73203D20000E
:10812C000D0A0066006C6E00666E00636F6465007D
:10813C0064657461696C00000000000000000000C0
:10814C0015570B003B570B00F9560B002F6D0B000E
:10815C000000000000000000715B0B00895B0B004D
:10816C00C9620B006F440B0000000000000000000F
:10817C009D5B0B00B15B0B006D640B0001570B009A
:10818C00000000000000000013570B0049570B00C3
:10819C002D620B0003570B000000000000000000D4
:1081AC0011570B0057570B00D95A0B0079570B007E
:1081BC0025592D256D2D25645425483A254D3A25F4
:1081CC0053257A0061736374696D650000000000CB
:1081DC000000000051670B0041670B0043670B0068
:1081EC00000000000000000037680B009F680B00C7
:1081FC0075680B00ED550B0067680B0039680B00B8
:10820C0049680B0099680B0059680B0031680B002A
:10821C000000000000000000A3690B0099690B002E
:10822C008F690B0045690B0083690B0077690B00A4
:10823C00DD6B0B00E56B0B006B690B0063690B00CE
:10824C0059690B004F690B00156C0B000000000006
:10825C0000000000DD690B00496A0B00216A0B006D
:10826C00ED550B00F1690B000D6A0B00FF690B005B
:10827C001B6A0B00DF690B00E3690B0000000000B8
:10828C0000000000956A0B00DF6A0B00B76A0B0058
:10829C00976A0B00BF6A0B00C76A0B00CF6A0B0012
:1082AC00D76A0B0000000000000000009D6B0B0063
:1082BC00A76B0B00B16B0B00BB6B0B00C56B0B0002
:1082CC00D16B0B00DD6B0B00E56B0B00ED6B0B004A
:1082DC00F96B0B00016C0B000B6C0B00156C0B009D
:1082EC00257500752530347800005245454E5420D4
:1082FC006D616C6C6F632073756363656564656435
:10830C00002F6D6E742F776F726B73706163652FB6
:10831C00776F726B73706163652F4743432D3130F8
:10832C002D706970656C696E652F6A656E6B696E10
:10833C00732D4743432D31302D706970656C696E18
:10834C00652D34385F32303230313132345F313672
:10835C0030363138303634312F7372632F6E657787
:10836C006C69622F6E65776C69622F6C6962632F22
:10837C007374646C69622F72616E642E63000020EA
:10838C0020202020202020202828282828202020B9
:10839C002020202020202020202020202020208869
:1083AC0010101010101010101010101010101004CD
:1083BC00040404040404040404101010101010101D
:1083CC004141414141410101010101010101010111
:1083DC000101010101010101010110101010101027
:1083EC0042424242424202020202020202020202E1
:1083FC0002020202020202020202101010102000FD
:10840C000000000000000000000000000000000060
:10841C000000000000000000000000000000000050
:10842C000000000000000000000000000000000040
:10843C000000000000000000000000000000000030
:10844C000000000000000000000000000000000020
:10845C000000000000000000000000000000000010
:10846C000000000000000000000000000000000000
:10847C0000000000000000000000000000000000F0
:10848C0051440B00A1460B00F1530B0041540B005F
:10849C00DD550B00B9620B00E1650B00FD650B00AF
:1084AC00AD690B00ED6C0B0000000000000000003B
:0484BC0000000000BC
:1084C000040000001400000003000000474E5500A7
:1084D000EEBAEC56F56B4698BB4EF4D057CACCF4C6
:0484E000C4876216D5
:0484E4000000000094
:1084E8009FEF5374617274757020436F6D706C6583
:1084F80074652E202052756E6E696E6720766572DF
:1085080073696F6E20322E303300000000000000C7
:108518000000000000000000000000000000000053
:108528000000000094810B00AC810B00D0810B008F
:1085380088E50320000000000000000000000000A3
:108548000000000000000000000000000000000023
:108558000000000000000000000000000000000013
:108568000000000000000000000000000000000003
:1085780000000000000000000000000000000000F3
:1085880000000000000000000000000000000000E3
:0885980000000000ECE70320E5
:1085A000FFFFFFFF00000102030405060708090A98
:1085B0000B0C0D0E0F101112131415161718191A93
:0885C0001B1C1D1E1F202800DA
:0485C800785634129B
:04000003B000401CED
:00000001FF
