:02000002B0004C
:1040000000400B00C87C0B00000006000D000502FC
:084010000401A60F00000000EE
:0440180070750B00B4
:10401C0009480A49884208B505D0094A824202D0AB
:10402C00121A03F0F5F80748074A0021121A03F098
:10403C0017F9014808BD00BF3CE50320287C0B00A4
:10404C00B4E50320B4E50320EDE7032070B5074E7B
:10405C00074C02F09FFFA41BA4080025AC4200D122
:10406C0070BD56F8043B98470135F7E7D07B0B0041
:10407C00F87B0B0000F064B808B500F0BFF8BDE8A1
:10408C00084002F03FBF01F0EDB801F0EBB801F0D1
:10409C00F1B8000008B5034A03490C2001F01CF8E4
:1040AC00FEE700BF454E0B0084750B000078B0FA9C
:1040BC0080F0400970470123037070470EB400B5BF
:1040CC008CB00DAA4FF0200C52F8041B0392CDE9D2
:1040DC0000120023016804AA1E20CDE904C301F0DC
:1040EC0003F80CB05DF804EB03B070477047006A3E
:1040FC000368DB68184700000A4B10B504460360E0
:10410C0001F0DCFD214602F014F802F0B3FE02F0DF
:10411C00A3FE2046044B40F8043B01F0A5FE2046CC
:10412C0010BD00BFCC750B00B4750B0010B5044668
:10413C00FFF7E2FF20462421FFF7A9FF204610BD20
:10414C0038B502F0EFFF01F0D3F9002000F084FE47
:10415C0042F210750446002000F07EFE001B61F157
:10416C000001A84271F1000307D202F083FE02F0B5
:10417C0076FE10B901F006F8EDE702F07BFE02F0D6
:10418C006EFE4FF47A7001F0A5F80121072002F0C1
:10419C0071FF0021032002F06DFF0121022002F0CB
:1041AC0069FF0021022002F076FF0121072002F0B6
:1041BC0072FF642001F08EF800F02AF900F0CAF9C1
:1041CC0000F02AFA00F03CFA00F026FA012100F087
:1041DC008DFA0749074803F09AF806490648FFF795
:1041EC006DFFBDE838400021072002F054BF00BF2E
:1041FC0099750B00E8E50320A4E6032010B5104CDC
:10420C0000F022FE2368C01AB0F57A7F0BD9072084
:10421C0002F05AFFB0FA80F14909072002F03BFF87
:10422C0000F012FE206000F0F3F800F001F928B164
:10423C0000F0F2F9BDE8104000F004BA10BD00BF68
:10424C00C0E5032070B5D0E900531426044606FBE4
:10425C000356AE4204D0284602F090FC1435F8E721
:10426C00206801F007F8204670BD8842F8B5044676
:10427C000D46164616D9904215D2A2F11406751A9F
:10428C00A1F114072C44B7421CD02CB13146204666
:10429C0002F0DCFC337C2374304602F06FFC143EDD
:1042AC00143CF0E70ED0B5420CD02CB12946204678
:1042BC0002F0CCFC2B7C2374284602F05FFC1435F6
:1042CC001434F0E7F8BD2DE9F0410023C0E90033C8
:1042DC0083604F689F4204460E4623DD4FF014085E
:1042EC0008FB07F000F0BEFF0546D8B1D4E9001278
:1042FC0008FB0212FFF7B9FF206800F0BBFF256036
:10430C00A760D6E9007308FB0378B84508D0394696
:10431C00284602F0B5FC3B7C2B7414371435F4E7BB
:10432C00736863602046BDE8F0810000F0B58DB085
:10433C000024CDE90044029402F09CFD204D064679
:10434C00694603A8FFF7BFFF2F4603A906A8FFF78E
:10435C00BAFF1C4B47F8043B06A909A8FFF7B3FFAB
:10436C0009AA1E21384601F0C7FF09A8FFF76AFF0A
:10437C0006A8FFF767FF144B2B6003A82E62FFF70C
:10438C0061FF124B2B6002F075FD4FF4165102F0D9
:10439C005FFD01F093FC294601F084FE6846FFF7AF
:1043AC0051FF0B4B0B4A9A60C3E90044032000F009
:1043BC00B3FE214601200DB0BDE8F04000F0BCBEBC
:1043CC00C4E50320B4750B004C790B00CC750B00C5
:1043DC00B4E503200000FFFF704710B51821044618
:1043EC00FFF755FE204610BD38B50546074B45F87E
:1043FC00043B044602F096FE4FF0FF3301461A468A
:10440C00284600F0BBF9204638BD00BF24770B00CE
:10441C0038B5064D2B683BB91820FFF734FE04461F
:10442C0008B1FFF7E1FF2C60286838BD28E60320AF
:10443C002DE9F74F2C4DDFF8C080DFF8C0A02E68B7
:10444C0000232B600127C146041D204600F0E4F92F
:10445C00204600F0DBF91AF8013B04220821204623
:10446C0000F0FDF9012000F035FF204600F0D1F9F5
:10447C0000F0EAFC8346204600F0D1F988B900F040
:10448C00E3FCA0EB0B00B0F5FA7FF4D91748184900
:10449C00FFF714FE6FF0020003B0BDE8F08F0227A7
:1044AC00D3E7204600F0D0F940F2125248F8040B42
:1044BC00C938904294BF3B4600232A68022F13440C
:1044CC002B60ECD1B3420AD0D9F804200192D9F870
:1044DC0000200092074905483246FFF7EFFD286897
:1044EC00801B18BF0120D7E740E60320A4E6032079
:1044FC00DC750B00ED750B0044E603203CE5032056
:10450C0038B50F4D0446FFF793FF2B6843B90D4A9E
:10451C000D480E49D2E90023FFF7D0FD012038BD2C
:10452C000B490948FFF7CAFD42F2107000F0D2FEA9
:10453C002046FFF77DFF2B68002BE8D00020EEE72C
:10454C0040E6032044E60320A4E6032021760B007A
:10455C005B760B0038B5041D0546204600F048F983
:10456C0010B31A491A48FFF7A9FD42F2107000F077
:10457C00B1FE02F0A0FB204600F062F92821204693
:10458C0000F073F94FF47A71204600F06BF9204675
:10459C000F2100F052F92846FFF7B2FF48B10D4940
:1045AC000B48FFF78BFD38BD0B490948FFF786FD1B
:1045BC00E1E70A490648FFF781FD42F2107000F06E
:1045CC0089FEBDE8384002F076BB00BF97760B0041
:1045DC00A4E60320D1760B00B8760B00E6760B0030
:1045EC00014B1868704700BF40E6032010B502F07D
:1045FC0099FD4FF0FF330146BDE8104001481A46C3
:10460C0000F0BCB82CE60320704710B50C21044612
:10461C00FFF73DFD204610BD38B5074C25684DB958
:10462C000C20FFF730FD20B1044BC0E90035052309
:10463C0083602060206838BD50E6032078770B003B
:10464C007047000038B5214C2568FFF7E1FEFFF7F5
:10465C00C7FF032835D8DFE800F0021221301C4ACE
:10466C00002313601B4A13702368AB4206D0D4BFDF
:10467C00194A1A4A1A491B48FFF720FD38BD15493B
:10468C00134A0B783BB1002008701168236802298B
:10469C0004BF0133236001231360E5E70D490C4A85
:1046AC000B7843B10020087011682368012904BFFE
:1046BC0003F1FF3323600223EEE7064B01221A704D
:1046CC00D2E709490748FFF7F9FCCDE74CE6032090
:1046DC0058E6032054E6032039770B002C770B00A7
:1046EC005F770B00A4E6032046770B00014B1960A3
:1046FC00704700BF4CE60320704708B5806800285F
:10470C0003DB002180B202F0C6FCBDE808400A20A1
:10471C0000F0E0BD08B58068002803DB012180B201
:10472C0002F0B9FCBDE808400A2000F0D3BD10B57A
:10473C001C210446FFF7ABFC204610BD13B50C46FC
:10474C000DF1060100F043FBBDF80630236002B00A
:10475C0010BD07B50DF1060100F028FBBDF80600F1
:10476C004EF6AC63C01A18BF4FF0FF3003B05DF8C3
:10477C0004FB08B500F074F908BD00002DE9F843FE
:10478C004FF05209C0E90012C0F80C908360054646
:10479C001C200F4616469846FFF775FC044680B160
:1047AC000A4B80F81090C0E90037002E00F110037E
:1047BC00C0E902684761836103DB0121B0B202F0FA
:1047CC0059FC2C612846BDE8F88300BF88770B00A4
:1047DC0007B50DF10601006900F0E8FABDF8060016
:1047EC004EF6CC23C31A5842584103B05DF804FB73
:1047FC0010B50446FFF7ECFF30B1206900F030F93A
:10480C00003818BF012010BD0120FCE7006900F042
:10481C0061B8006900F063B8006900F065B807B5CD
:10482C000DF10701006900F0FFF89DF80700003852
:10483C0018BF012003B05DF804FB006900F062B9F9
:10484C000069022100F057BA07B50DF106010069A5
:10485C0000F0BDFABDF8060003B05DF804FB00697A
:10486C0000F047B8006900F074B8006900F079B83E
:10487C00F7B5044615464068BDF8207049081E4639
:10488C0000F068FE2B0A60688DF805508DF8043036
:10489C0003680222DB6801A998470025AF426068D3
:1048AC0005DD0368715D9B6898470135F6E70121CA
:1048BC0000F054FE002003B0F0BD1FB58DF80F3092
:1048CC000123097800930DF10F03FFF7D1FF05B019
:1048DC005DF804FB816901238622FFF7EEBF816935
:1048EC0040238722FFF7E9BF816900238722FFF766
:1048FC00E4BF102970B50D4628BF1025102A1646A6
:10490C0028BF10260A29044613D80B2A28BFC72310
:10491C00A1697F222046FFF7D0FF013D731E45EAB7
:10492C000313A1692046DBB2BDE870408022FFF77B
:10493C00C4BFC723ECE71FB51C0A8DF80D3002234A
:10494C000978009303AB8DF80C40FFF791FF04B08E
:10495C0010BD08B56622CB088169FFF7ECFF00207B
:10496C0008BDB1F5804F10B407D289008BB25DF849
:10497C00044B81696422FFF7DEBF01205DF8044B14
:10498C0070472DE9F743044690461D464F084FEA01
:10499C00122905266068394600F0DCFD60688DF848
:1049AC0004908DF80580036801A9DB680222984702
:1049BC006068002100F0D2FD18B1013E16F0FF0630
:1049CC00E8D19DF828206068394600F0C0FD013D13
:1049DC00606803681B69984730B1606803685B695D
:1049EC00984705F8010FF3E703B0BDE8F08313B562
:1049FC00012409780094FFF7C4FF003818BF012088
:104A0C00404202B010BD13B530220C460DF1070325
:104A1C008169FFF7ECFF9DF807306FEA131303F081
:104A2C000103237002B010BD37B505460C460DF1DD
:104A3C000701FFF7E8FFA9690DF1060331222846AB
:104A4C00FFF7D5FF50B99DF806309DF8072003F00D
:104A5C0001039A4206BF01232370207003B030BDBE
:104A6C0073B500231C4E8DF8073004462D25AAB2D1
:104A7C0016F8013BA16920460135FFF71EFF882D72
:104A8C00F5D12046FFF72BFF98259DF8073063B929
:104A9C000DF107012046013DFFF7C6FF15F0FF059C
:104AAC0017D0012000F016FCEFE72046FFF712FFAD
:104ABC002046FFF719FFA169092308222046FFF7BA
:104ACC00FCFEA16900230B222046FFF7F6FE02B084
:104ADC0070BD6FF00600FAE7A4770B0013B54B22FC
:104AEC000DF107030C468169FFF781FF9DF8073034
:104AFC00142B03D10123238002B010BD0A2BFBD150
:104B0C000223F8E773B50D460DF106010446FFF7D5
:104B1C00E5FFBDF80630064653B1012B52D1322DBC
:104B2C0032D007D8142D25D0212D2BD00F2D12D0FB
:104B3C0001261CE0C82D31D0B5F5FA7F38D0642D94
:104B4C00F6D140F2E123A1695E222046FFF7F3FE85
:104B5C004FF4627306E01D23A1695E222046FFF725
:104B6C00EAFE2723A16961222046FFF7E4FE3046C6
:104B7C0002B070BD5123A1695E222046FFF7DBFE17
:104B8C006E23EFE7D623F6E74FF4D773A1695E22C5
:104B9C002046FFF7D0FE4FF4F473E3E740F2E13325
:104BAC00A1695E222046FFF7C6FE40F29643D9E784
:104BBC0040F29153A1695E222046FFF7BCFE40F201
:104BCC00C153CFE7642D27D00DD8212D1AD0322D0B
:104BDC001AD0142DACD11E23A1695E222046FFF7FA
:104BEC00AAFE2223BEE7C82D20D0B5F5FA7F9FD1AF
:104BFC0040F28F43A1695E222046FFF79CFE40F2F3
:104C0C00A443AFE76023B6E7AD23A1695E2220463B
:104C1C00FFF791FEC623A5E74FF4E673A1695E2268
:104C2C002046FFF788FE4FF4F5739BE740F2D9233B
:104C3C00A1695E222046FFF77EFE4FF43E7391E79A
:104C4C001FB51C460023ADF80C30022309780093E5
:104C5C0003ABFFF796FE30B99DF80C209DF80D3094
:104C6C0003EB0223238004B010BD13B55E220DF1BB
:104C7C0006030C468169FFF7E3FFBDF80630B3F578
:104C8C00D77F34D010D8512B2FD005D81D2B28D03E
:104C9C001E2B2AD0002325E0AD2B28D0D62B01D0FB
:104CAC00602BF7D121231DE040F2E132934220D05A
:104CBC000CD840F2D92293421BD040F2E12293420D
:104CCC0002D0B3F5E67FE5D164230BE040F28F42CE
:104CDC00934203D040F291529342DBD14FF4FA73DA
:104CEC0000E00F23238002B010BD1423FAE7322317
:104CFC00F8E7C823F6E737B50D460DF10601044673
:104D0C00FFF7B3FF012D08D0022D2DD0BDF80610F2
:104D1C002046FFF7F7FE03B030BDA16914234B22E8
:104D2C002046FFF7CAFDA169072360222046FFF742
:104D3C00C4FDA169052363222046FFF7BEFDA169CE
:104D4C00382369222046FFF7B8FD40F20573A169AC
:104D5C0078222046FFF7EFFD40F20663A1697A2224
:104D6C002046FFF7E8FDD1E7A1690A234B22204634
:104D7C00FFF7A3FDA1690F2360222046FFF79DFDDD
:104D8C00A1690D2363222046FFF797FDA169B82383
:104D9C0069222046FFF791FD40F60D73A169782238
:104DAC002046FFF7C8FD40F60E63D7E713B5002386
:104DBC000C46ADF8063081690DF1060340F20F1276
:104DCC00FFF73EFFBDF80630238002B010BD13B5CF
:104DDC0096220C460DF106038169FFF731FFBDF8F1
:104DEC000630238002B010BD08B5024B1B685B6C0B
:104DFC00019308BD4802030008B5024B1B689B6C6D
:104E0C00019308BD4802030008B5024B1B68DB6C1C
:104E1C00019308BD4802030008B5024B1B685B6D8B
:104E2C00019308BD4802030008B5024B1B685B6880
:104E3C00019308BD1802030008B5024B1B68DB6820
:104E4C00019308BD1802030008B5024B1B685B698F
:104E5C00019308BD1802030008B5024B1B68DB6DFB
:104E6C00019308BD1802030008B5024B1B689B6830
:104E7C00019308BD2C02030008B5024B1B68DB68CC
:104E8C00019308BD2C02030008B5024B1B681B697B
:104E9C00019308BD2C02030008B5024B1B685B692B
:104EAC00019308BD2C02030008B5024B1B68DB689C
:104EBC00019308BD2802030008B5024B1B689B69CF
:104ECC00019308BD2802030008B5024B1B68DB697F
:104EDC00019308BD2802030008B5024B1B681B6A2E
:104EEC00019308BD2802030008B5024B1B685B6ADE
:104EFC00019308BD2802030008B5024B1B689B6A8E
:104F0C00019308BD2802030008B5024B1B68DB6A3D
:104F1C00019308BD2802030008B5024B1B681B6BEC
:104F2C00019308BD2802030008B5024B1B685B6B9C
:104F3C00019308BD2802030008B5024B1B681B6CCB
:104F4C00019308BD2802030008B5024B1B681B6DBA
:104F5C00019308BD2802030008B5024B1B685B696E
:104F6C00019308BD6402030008B5024B1B689B68E3
:104F7C00019308BD6802030008B5024B1B68DB688F
:104F8C00019308BD6802030008B5024B1B68DB697E
:104F9C00019308BD3002030008B5024B1B681B6A65
:104FAC00019308BD3002030008B5024B1B689B68D7
:104FBC00019308BD3C02030008B5024B1B68DB687B
:104FCC00019308BD3C02030008B5024B1B681B692A
:104FDC00019308BD3C02030008B5024B1B685B69DA
:104FEC00019308BD3C02030008B5024B1B689B698A
:104FFC00019308BD3C02030008B5024B1B68DB693A
:10500C00019308BD3C02030008B5024B1B681B6AE8
:10501C00019308BD3C02030008B5024B1B689B6A58
:10502C00019308BD3C02030008B5024B1B68DB6A08
:10503C00019308BD3C02030008B5024B1B681B6CB6
:10504C00019308BD3C02030008B5024B1B681B68AA
:10505C00019308BD4C02030008B5024B1B685B684A
:10506C00019308BD4C02030008B5024B1B689B68FA
:10507C00019308BD4C02030008B5024B1B681B6969
:10508C00019308BD4C02030008B5024B1B685B6919
:10509C00019308BD4C02030008B5024B1B689B69C9
:1050AC00019308BD4C02030008B5024B1B68DB6979
:1050BC00019308BD4C02030008B5024B1B681B6A28
:1050CC00019308BD4C02030008B5024B1B689B6A98
:1050DC00019308BD4C02030008B5024B1B685B6BC7
:1050EC00019308BD6002030008B5024B1B685B6DA1
:1050FC00019308BD6002030008B5024B1B68DB6E10
:10510C00019308BD6002030008B5024B1B681B6FBE
:10511C00019308BD6002030008B5024B1B685B6875
:10512C00019308BD2002030008B5024B1B685B69A4
:10513C00019308BD2002030008B5024B1B68DB6A13
:10514C00019308BD2002030008B5034B1B68D3F87C
:10515C008830019308BD00002002030008B5034B02
:10516C001B68D3F89430019308BD000020020300A3
:10517C0008B5034B1B68D3F8B030019308BD000091
:10518C002002030008B5024B1B689B68019308BD05
:10519C004402030008B5024B1B68DB6B019308BD8E
:1051AC004402030008B5024B1B685B68019308BD01
:1051BC004002030008B5024B1B689B68019308BDB5
:1051CC004002030008B5024B1B68DB68019308BD65
:1051DC004002030008B5024B1B681B69019308BD14
:1051EC004002030008B5024B1B685B69019308BDC4
:1051FC004002030008B5024B1B689B69019308BD74
:10520C004002030008B5024B1B68DB69019308BD23
:10521C004002030008B5024B1B681B6A019308BDD2
:10522C004002030008B5024B1B681B6B019308BDC1
:10523C004002030008B5024B1B685B6B019308BD71
:10524C004002030008B5024B1B681B6C019308BDA0
:10525C004002030008B5024B1B685B6C019308BD50
:10526C004002030008B5024B1B681B68019308BD84
:10527C001C02030008B5024B1B685B68019308BD58
:10528C001C02030008B5024B1B689B68019308BD08
:10529C001C02030008B5024B1B685B6A019308BD36
:1052AC001C02030008B5024B1B68DB6B019308BDA5
:1052BC001C02030008B5024B1B681B6C019308BD54
:1052CC001C02030008B5024B1B685B6C019308BD04
:1052DC001C0203000021FFF727BF10B54368013BF8
:1052EC000446436063B903689B689847A368013B15
:1052FC00A3602BB923682046DB68BDE81040184733
:10530C0010BD70B5D0E90053044605EB0316AE4250
:10531C0004D0284601F032FC1035F8E72068FFF77E
:10532C00A9FF204670BD10B50446006808B1FFF710
:10533C00D4FF204610BD0000024800230360FFF795
:10534C0053BD00BF5CE60320002240681146FFF706
:10535C0041BF002240681146FFF75CBF0022406845
:10536C001146FFF767BF40680022FFF75BBF40683C
:10537C00002281F00101FFF745BF002340681A4667
:10538C001946FFF737BF002340681A461946FFF746
:10539C0029BF002240681146FFF70CBF406800226D
:1053AC000221FFF70FBF002340681A46FFF7FABE31
:1053BC00084B10B5282422461846002101F050FF56
:1053CC00054B04804FF0FF32426004225A60034ABE
:1053DC001A6010BD68E6032060E6032008780B0015
:1053EC00002240681146FFF715BF002240681146A5
:1053FC00FFF720BF40680022FFF714BF406800226F
:10540C0081F00101FFF7FEBE002340681A461946E1
:10541C00FFF7F0BE002340681A461946FFF7E2BEBC
:10542C00002240681146FFF7D5BE002240681146A5
:10543C00FFF7C0BE406800220221FFF7C3BE002365
:10544C0040681A46FFF7AEBE024B03225A60024A6E
:10545C001A60704790E6032044780B007047F8B54B
:10546C00064615460C468F18BC4206D0336814F815
:10547C00011B9B6830469847F6E72846F8BD007C30
:10548C000022FFF729BD007C0021FFF72DBD007C19
:10549C000021FFF731BD007C0021FFF735BD007CFA
:1054AC000021FFF739BD10B514210446FEF7EFFDBE
:1054BC00204610BD38B5044615464FF47A730022C9
:1054CC00C4E90123094B2174084623602946FFF7E0
:1054DC0033FDBF3008D16B69DB0705D56868FFF772
:1054EC00C9FEE868FFF7C6FE204638BD80780B0081
:1054FC000023007C1A461946FFF7D6BC7FB5002264
:10550C001423CDE90122ADF804300B788DF8083066
:10551C004B680393CB680493007C0B7A059301A929
:10552C00FFF712FD07B05DF804FB1FB5003B8DF8CB
:10553C0000104FF06401039118BF012369460192DA
:10554C008DF80830FFF7DAFF05B05DF804FB012396
:10555C00FFF7EBBF007C0022FFF7AEBC007C002203
:10556C00FFF7B2BC704710B518210446FEF78FFD4B
:10557C00204610BDF0B5037D062B8DB00E4600F114
:10558C0004074FF0000412D000F1080515F8011DB6
:10559C000A22304601F093FAAF42044419D0002C91
:1055AC00F4D02E21304601F07BFA0444EEE72F2391
:1055BC006A4639460A208DF80040FFF7CDFC684654
:1055CC0001F0ADFE33680246DB6869463046984709
:1055DC00044620460DB0F0BD10B5054B0446112213
:1055EC0040F8043B002101F03BFE204610BD00BFFB
:1055FC00A8780B000346074A10B543F8042B01F1B9
:10560C00100251F8044B43F8044B9142F9D10A783B
:10561C001A7010BDA8780B0010B59DF8084044EA2C
:10562C00032343EA024242EA016104234160037509
:10563C0010BD000007B5064B0360CB7800938B7848
:10564C004A780978FFF7E8FF03B05DF804FB00BF68
:10565C00A8780B0000F11003012213F8101C01298B
:10566C00184608D153F8041C02EB4102013A03F12D
:10567C001003F2D17047022904BF53F8041C5218CE
:10568C00F4E70EB4F0B588B000AF07F13405102183
:10569C0055F8042B7A6004462B467818FD60FFF70A
:1056AC00F9FD0F287A681AD900F1080323F00703D3
:1056BC006E46ADEB030D411C2B466846FD60FFF7B3
:1056CC00E9FD021E04DD236869469B682046984765
:1056DC00B5462037BD46BDE8F04003B07047002802
:1056EC00F7D0236802469B6807F1100120469847C3
:1056FC00EFE738B50B6803604D6843689D4204467C
:10570C0008D015B16B6801336B60606808B1FFF7A6
:10571C00E4FD656038BD07B503688DF807109B681C
:10572C0001220DF10701984703B05DF804FB0B460D
:10573C001146002210B5C0E90022044683600BB963
:10574C00204610BDFFF7D5FFFAE78368EBB11A7856
:10575C00032A1AD8DFE802F00417021B0520704751
:10576C0002685B685268D05C2D2812D0A0F130031F
:10577C00092B0ED974280ED066280CD0A0F16E031C
:10578C00584258417047062070470020704704204B
:10579C007047032070470220704710B50446FFF78E
:1057AC00D4FF02280ED0C31EDBB2012B14D8226802
:1057BC00A36850685B68BDE810400A2200211844B9
:1057CC0001F060BE2268A36852685B68D05CA0F1EF
:1057DC0074035842584110BD0020FCE738B5002333
:1057EC00C0E9003304460E48C4E90203A9B10B78A2
:1057FC00032B06D08BB9136858684B68C35C6E2BAF
:10580C0007D013684D6858688B6828445B1BA060F0
:10581C00E36011462046FFF76CFF204638BD00BF01
:10582C0017790B0038B500250B46C0E90055C0E9C7
:10583C000255C0E90455044611464BB11A78012AA9
:10584C0006D103F11002DB6882604361FFF751FF60
:10585C00204638BD10B54369044663B18068E060EA
:10586C00013B1030A0602061636113B1FFF7F2FEC1
:10587C00A060012000E0184610BD10B57D21044643
:10588C00FFF749FF01232371204610BD08B50379AA
:10589C00012B02D0022B04D008BD2C21FFF73BFFBB
:1058AC00FAE73A21FAE710B50446FFF7EFFF204676
:1058BC007B21FFF730FF00232371204610BD000031
:1058CC0013B504460191FFF7E1FF2368019ADB68E9
:1058DC0003492046984701232046237102B010BD8E
:1058EC00B4780B0013B504460191FFF7CFFF236882
:1058FC00019ADB680349204698470123204623710F
:10590C0002B010BDB7780B002DE9F0470D462221EF
:10591C0090460446FFF7FFFEDFF8A490A8442F46FC
:10592C004745BA463DD017F8016B222E06D05C2EA7
:10593C0004D0304601F064FC0028F1D12368AAEBB6
:10594C0005029B682946204698475C212046FFF7B4
:10595C00E2FE0D2E0AD8072E1CD9A6F10803052B42
:10596C0018D8DFE803F00D0F11171315222E01D0F4
:10597C005C2E0FD131462046FFF7CDFE3D46CFE7DA
:10598C006221F8E77421F6E76E21F4E76621F2E76D
:10599C007221F0E723683246DB6849462046984777
:1059AC00ECE7BD4205D023687A1B9B68294620464C
:1059BC00984722212046FFF7AEFEBDE8F08700BFD6
:1059CC00BA780B0013B50446CDE90021FFF75EFF52
:1059DC002046DDE90021FFF797FF022320462371C3
:1059EC0002B010BD13B50446CDE90021FFF74EFF00
:1059FC002046DDE90021FFF787FF012320462371B4
:105A0C0002B010BD80680368DB6818477047084611
:105A1C0011B10B685B681847704770477047704747
:105A2C00704738B504460D4600682E2101F05BFC2A
:105A3C002368C31A2B6023B1037803B101302368A8
:105A4C002060184638BD10B50C210446FEF71FFB2C
:105A5C00204610BD10B504210446FEF718FB204665
:105A6C0010BD10B504210446FEF711FB204610BDF5
:105A7C00FFF7CAB908B501F040FCB0FA80F0400954
:105A8C0008BD704710B50C4601F0F4F9844210D0F3
:105A9C0001F088FB844205D101F084FBBDE8104085
:105AAC0001F081B92CB1236820465B68BDE8104039
:105ABC00184710BD0B6803604B68436013B15A68FC
:105ACC0001325A60704713B504460846019101F043
:105ADC0026FC01990246204602B0BDE81040FFF7B3
:105AEC0081BF13B504460846019101F018FC2368E8
:105AFC000199DB680246204602B0BDE81040184709
:105B0C0007B503688DF80710DB6801220DF107015A
:105B1C00984703B05DF804FB0EB403B503AB00214A
:105B2C0053F8042B006A019300F0E7FF02B05DF814
:105B3C0004EB03B070470A6802604A6842600022B6
:105B4C00C0E9022210B502618C688460CC68C46024
:105B5C000C698A60CA6004610A6110BD2DE9F74FB7
:105B6C00D0E900844FF0140A00930AFB04F4184B9C
:105B7C00A41017465C434546002C21DD66100AFB39
:105B8C0006F005EB00093A46B9F804B02858019123
:105B9C005F4528BF5A4601F0CAFB002801994FF017
:105BAC0001030BD15F4503D1009A13703446E3E730
:105BBC00FCD9A61B09F11405013EF7E7F9DBF5E763
:105BCC00A5EB08050248AD10684303B0BDE8F08FA3
:105BDC00CDCCCCCC7FB50369057E019103B3F9B173
:105BEC00002600F10C04039603A901A8FFF719FF86
:105BFC000146A8B10DF10B03039A8DF80B602046FA
:105C0C00FFF7ACFF9DF80B3053B12368142404FB51
:105C1C000034083434F9023C002BA8BFDDB2E3E7B2
:105C2C00284604B070BD000010B5094C2378BFF3B2
:105C3C005B8FDB0709D42046FEF738FA28B12046E3
:105C4C00FEF739FA034801F0D5FA034810BD00BF3E
:105C5C009CE60320275A0B0040E5032010B5094CA5
:105C6C002378BFF35B8FDB0709D42046FEF71EFABF
:105C7C0028B12046FEF71FFA034801F0BBFA03488F
:105C8C0010BD00BFA0E603208F5A0B0044E5032093
:105C9C0038B500250446C0E90055C0E904558560B7
:105CAC00856140F8245FFFF79FF8FFF7BDFFE061C7
:105CBC00FFF7D4FF25732062204638BD10B50A4C7F
:105CCC002378BFF35B8FDB070CD42046FEF7EEF98D
:105CDC0040B10648FFF7DCFF2046FEF7ECF904481C
:105CEC0001F088FA014810BD98E60320A8E60320CD
:105CFC001D620B00024A034903480023FFF704BA54
:105D0C0001600B008D5F0B000D5F0B0000231A462A
:105D1C0019461846FFF7F8B937B58D68044668463A
:105D2C00FFF7C8FE6A4629462046FFF77BFD01A80F
:105D3C00FFF7F9FA204603B030BD37B5CD680446FD
:105D4C006846FFF7B7FE6A4629462046FFF746FD30
:105D5C0001A8FFF7E8FA204603B030BD37B50D694E
:105D6C0004466846FFF7A6FE6A4629462046FFF71A
:105D7C00DEFC01A8FFF7D7FA204603B030BD0000C7
:105D8C0070B58AB00D46014604A8FFF7C5FF144E46
:105D9C0004A8FFF75FFDE8B104A96846FFF7CDFF43
:105DAC0002983146FFF766FE044610B12C1E18BF50
:105DBC00012401A8FFF7B7FA002CE9D004A9684622
:105DCC00FFF7CCFF6846FFF7E8FC286001A8FFF757
:105DDC00AAFADDE705A8FFF7A6FA0AB070BD00BF66
:105DEC00C0780B0037B50C4620461349154601F018
:105DFC0084FA50B901F03EF84FF4165101F028F82E
:105E0C0003B0BDE8304001F035B80C49204601F034
:105E1C0074FA78B94FF4165301A928460193FFF789
:105E2C00AFFF01F0BFF9019900F0BAFF01F0BAF928
:105E3C0003B030BD0020FBE7C5780B00CC780B001D
:105E4C0070B5D0E900531426044606FB0356AE4247
:105E5C0005D005F10800FFF7F3FF1435F7E72068CC
:105E6C00FFF708FA204670BD10B504460C30FFF75A
:105E7C00E7FF2046FFF745FA204610BD10B5044B4E
:105E8C00044640F8043BFFF7EFFF204610BD00BF6F
:105E9C00B4750B0010B50446FFF7F0FF2046242123
:105EAC00FEF7F5F8204610BD10B5034B0360044611
:105EBC00FFF7E4FF204610BD64790B0010B50446D3
:105ECC00FFF7F2FF20462421FEF7E1F8204610BD33
:105EDC000022C0E9002210B582600C6804604C6896
:105EEC0044608C680A604A6084608A6010BD10B59A
:105EFC00036804461868FEF78FFF204610BD0000AB
:105F0C002DE9F04F87B0804603931C4B5B68C3F3BD
:105F1C000803894616466BB9FFF7D0FE044600F11C
:105F2C002403406A0593FFF7A3FD237B2BB105A83F
:105F3C00FFF7DDFF07B0BDE8F08F01232373D4E931
:105F4C0000535FFA89F905EB830AAA4512D055F87C
:105F5C00047B3146381DFFF73DFE8145F5D33B6888
:105F6C00039A0092D3F808B04A4633464146384665
:105F7C00D847EAE700232373D9E700BF00ED00E020
:105F8C002DE9F74F9B461A4B5B68C3F30803804619
:105F9C00894616466BB9FFF791FE044600F12403BF
:105FAC00406A0193FFF764FD237B2BB101A8FFF737
:105FBC009EFF03B0BDE8F08F01232373D4E9005397
:105FCC00F6B205EB830A55450ED055F8047B5946BD
:105FDC00381DFFF7FFFD8642F5D33B684A46DB6868
:105FEC00414638469847EEE700232373DEE700BFAF
:105FFC0000ED00E02DE9F341164B5B68C3F3080399
:10600C0005460F461BBBFFF759FE00F1240304465F
:10601C00406A0193FFF72CFDD4E90063462406EB9C
:10602C008308B04509D101A8FFF761FFA542B4BFB1
:10603C000020012002B0BDE8F08156F8040B39466F
:10604C000430FFF7C7FD8442A8BF0446E9E70020EF
:10605C00F0E700BF00ED00E0F8B5D0E901539D4238
:10606C0004460E460DDB6F1C002F006804DDB900E2
:10607C00FFF708F918B9F8BDFFF7FCF8002020600D
:10608C00A7602768626807EB85019200A2EB850286
:10609C00081D01F0CBF847F8256063680133636095
:1060AC000120E8E737B500F124030446406A019368
:1060BC000D46FFF7DDFCD4E9003203EB820293427C
:1060CC0019460BD00968A94203F10403F7D101A8C2
:1060DC00FFF70DFF0025284603B030BD29462046AA
:1060EC00FFF7BAFF05460028F1D06368012B01D1F8
:1060FC00FFF700FE01A8FFF7FAFEECE770B50446C7
:10610C00D0E900020B4600EB820282420FD001461E
:10611C001D6851F8046BAE4207D1521A01F086F893
:10612C006368013B6360012070BD0846EDE7002009
:10613C00FAE71FB500F124030446406A019103936A
:10614C00FFF796FC01A92046FFF7D8FF18B163684A
:10615C000BB9FFF7DBFD03A8FFF7C9FE04B010BDB8
:10616C0070B5D0E904561823044603FB0656AE421C
:10617C0015D005F110012046FFF7C0FF63680BB97D
:10618C00FFF7C4FDE06929690368DB689847696912
:10619C0019B1206A0368DB6898471835E7E7D4E93A
:1061AC000453182606FB0356AE4204D0284600F0D2
:1061BC00E5FC1835F8E70023636170BD73B5044640
:1061CC00FFF7A4FD04F12403606A0193FFF750FC70
:1061DC002046FFF7C5FF01A8FFF789FE606A08B1EA
:1061EC00FEF70AFED4E90453182606FB0356AE420A
:1061FC0004D0284600F0C2FC1835F8E72069FFF7F8
:10620C0039F82068FFF736F8204602B070BD000060
:10621C000148FFF7D3BF00BFA8E603208842F8B5BA
:10622C0004460D46164615D9904214D2A2F1140616
:10623C00751AA1F114072C44B7421AD01CB131467F
:10624C002046FFF778FC06F10800FFF7F9FD143E35
:10625C00143CF1E70DD0B5420BD01CB129462046B9
:10626C00FFF769FC05F10800FFF7EAFD143514345B
:10627C00F1E7F8BD8842F8B504460D46164614D928
:10628C00904213D2A2F11006751AA1F110072C44FA
:10629C00B74218D01CB13146204600F0D7FC30462E
:1062AC0000F06CFC103E103CF2E70CD0B5420AD06A
:1062BC001CB12946204600F0C9FC284600F05EFCC3
:1062CC0010351034F2E7F8BD70B50E1E054611DD21
:1062DC003001FEF7C7FF044658B1D5E9001201EBB7
:1062EC000212FFF7C7FF2868FEF7C4FF2C60AE60F0
:1062FC00012070BD0024F6E72DE9F04F904695B0D3
:10630C0000230391D8F804100A9346229942C0E95D
:10631C000033C0E90233C0E90433CDE90833044645
:10632C00027623DCD8E90057142303FB0757AF424E
:10633C003BD029460BA800F089FC0BA90FA8099E9D
:10634C0000F084FCDDE9091399421BDA089B099AD9
:10635C0003EB061603EB0212314606F11000FFF7B1
:10636C0089FFEEB9099B0133099311E008A8FFF7E7
:10637C00ABFF0028D6D108A8FEF7C3FF204615B006
:10638C00BDE8F08F013108A8FFF79EFF0028DDD192
:10639C000FA800F0F3FB0BA800F0F0FB1435C6E7D8
:1063AC000FA9304600F052FCDCE70026CDE90B6665
:1063BC000D964FF01409DDE908239E427CDA330177
:1063CC00D35806930BB90136F5E70023079309FB65
:1063DC0006F302930BAD07A906A8FFF722FB824632
:1063EC000028F0D04FF000038DF817300146079AC3
:1063FC000DF117032846FFF7B1FB9DF817700190BC
:10640C00002F4AD1BDF81C30ADF84030CDE91177E2
:10641C004FF6FF73CDF83CA0ADF842301397D5E999
:10642C000132934217DB03F1010ABAF1000F30DDA0
:10643C0009FB0AF0FEF716FF834660B3D5E900129C
:10644C0009FB0212FFF7EAFE2868FEF713FFC5F8F6
:10645C0000B0C5F808A02B68019A09FB023A6A68DB
:10646C00514609FB02320AF11400FFF7D7FEBAF1CC
:10647C00000F03D00FA95046FFF75DFB6B6801338B
:10648C006B6011A8FFF7DCFC3FB10BA8FFF7D8FC41
:10649C0071E7BB46D8E70127F3E7019B2D6809FBA1
:1064AC000355069B1B782BB9D8F80030029A13447D
:1064BC001B7CEB8008358EE7216822606268636084
:1064CC00A36809920A9A0A93E368A2600B9A0B9349
:1064DC002369E2600C9A0C93636922610D9A0D9307
:1064EC00039B089162612376CFE70000F0B5044668
:1064FC0087B00D462646194668461746FDF7E3FE5B
:10650C000B4B46F8043B694603A8FDF7DCFE03AAD7
:10651C0039463046FFF7F0FE03A8FDF793FE6846B8
:10652C00FDF790FE034B23602046256207B0F0BDBB
:10653C00B4750B004C790B00F0B50F4685B01D49B6
:10654C000A9C384616461D4600F0D7FEC0B9A4B1C9
:10655C00294601A8FFF7BCFC1749242000F046FE91
:10656C00054630B101AB32462146FFF7BFFF134B56
:10657C002B6001A8FDF766FE2C46204605B0F0BD49
:10658C000F49384600F0B9FE90B9002CF5D02946D9
:10659C0001A8FFF79DFC0849242000F027FE0546C2
:1065AC000028E6D001AB32462146FFF79FFFE0E71B
:1065BC000024E2E7D4780B005C7A0B0064790B00C2
:1065CC00D8780B00014B024A1A607047A4E60320EE
:1065DC00E9780B002DE9F047089DD0F8209004468F
:1065EC000E461746984600F045FC81454CD02B7959
:1065FC00190704D56A6954492046FFF78DFAB8F19A
:10660C00000F0DD05B212046FFF77AFA4146204659
:10661C00FFF767FA23684D49DB680222204698474A
:10662C002B79DA0723D5D5F808802F21404600F0C6
:10663C0092FE08B100F1010841462046FFF751FADD
:10664C002B799B0708D53A212046FFF759FAEA68BF
:10665C003F492046FFF760FA2A79236812F0040FAD
:10666C00DB6814BF3B493C490222204698472B79F2
:10667C0058071DD529690B461A4613F8010B60B152
:10668C00202808D11946F7E7344800F066F90028AD
:10669C00ADD0BDE8F0872828EED12368521ADB680C
:1066AC002046984723682E49DB68042220469847E9
:1066BC0000213846FEF720FD01462046FFF711FA6F
:1066CC0023682549DB680222204698471EB13146D3
:1066DC002046FFF706FA2B7913F0300F2CD02368E5
:1066EC002049DB680222204698472B79D9060AD527
:1066FC0023681D49DB68072220469847AA691B4975
:10670C002046FFF709FA2B799A0611D5DB0605D539
:10671C0023681049DB6802222046984723681449F5
:10672C00DB6820460A229847E9692046FFF7D9F929
:10673C005D212046FFF7E4F923680E49DB6820460B
:10674C000222BDE8F0471847ED780B00F4780B00F7
:10675C00B4780B00F7780B00FC780B00D0E6032024
:10676C00FA780B00FF780B0002790B006C770B00AA
:10677C000A790B0015790B002DE9F04385B0D0F8A0
:10678C0020900C9C05460F4690461E4600F072FB6E
:10679C00814505D1494800F0E0F8002840F08A8096
:1067AC002B6A474A01924FF0000901A803938DF818
:1067BC000890FFF778F849464046FEF79DFC4149A2
:1067CC008046012201A8FFF7FDF84146FFF77BF94F
:1067DC003FB13D49012201A8FFF7F4F83946FFF714
:1067EC0072F93EB13949012201A8FFF7EBF83146A5
:1067FC00FFF769F92379DF070ED5A6682F213046FC
:10680C0000F0A9FD00B1461C3149012201A8FFF797
:10681C00D9F83146FFF757F923799E0707D52D494B
:10682C00022201A8FFF7CEF8E168FFF749F82379B7
:10683C00580714D5266933461F4613F8012B2AB185
:10684C00202A01D11E46F7E7282AF5D12249022237
:10685C0001A8FFF7B7F8BA1B3146FFF7C3F8237945
:10686C00190707D51D49012201A8FFF7ABF861698B
:10687C00FFF738F82379DA0608D5042218490DEB0E
:10688C000200FFF79FF8A169FFF71AF823799B061E
:10689C0007D51449062201A8FFF794F8E169FFF720
:1068AC0012F901A8FEF7E9FF286A0F4903680222D2
:1068BC00DB68984705B0BDE8F08300BFD0E6032045
:1068CC0034790B00CA780B0059760B00CB7A0B008D
:1068DC0018790B001A790B001D790B0018770B0037
:1068EC0020790B0025790B0015790B0000234068EB
:1068FC001A46FEF757BC406800220221FEF762BC24
:10690C00002240681146FEF755BC00224068114633
:10691C00FEF760BC002340681A461946FEF762BCBD
:10692C00002340681A461946FEF764BC40680021F3
:10693C00FEF788BC40680021FEF78CBC4068002242
:10694C0081F00101FEF75EBC40680022FEF76ABCD4
:10695C00002240681146FEF76DBC002240681146CB
:10696C00FEF758BC2DE9F04395B014460D4607468A
:10697C00FEF732FE00211C220DA8009100F070FCE5
:10698C0040230C9320466B460CAA0021FEF7F4FA28
:10699C00044600284BD1024601216868FEF71AFC18
:1069AC000221804622466868FEF714FC009E814650
:1069BC002146002E3BD0002939D17368022B03D01D
:1069CC000A2B11D0F669F4E7B8F1000FFAD071690F
:1069DC0006A8043107ADFEF72DFE0FCD3C1D0FC4EC
:1069EC002B6823704146EDE7B9F1000FEAD07469CA
:1069FC00102201A800F034FC06238DF8143001ADF0
:106A0C0004F108031834186859682A4603C208337D
:106A1C00A3421546F7D101A906A807ADFEF7EAFD7A
:106A2C000FCD3C1D0FC42B6823704946CAE7009854
:106A3C00FEF79AFA384615B0BDE8F083024B034ACC
:106A4C001A6000225A607047D0E60320AC790B0024
:106A5C00F8B506460D468F180024BD420CD033689D
:106A6C0015F8011B9B6830469847031E01DB1C443C
:106A7C00F3E7002C08BF1C462046F8BD13B50446AE
:106A8C00084659B1019100F04AFC23680199DB6872
:106A9C000246204602B0BDE81040184702B010BDB7
:106AAC0003689B68184738B50D210546FFF7F8FFBA
:106ABC000A2104462846FFF7F3FF204438BD30B5C1
:106ACC008BB00023012A8DF8243098BF0A2209AC20
:106ADC000D46B1FBF2F101FB125303F0FF03092B3E
:106AEC0094BF30333733DBB2AA4204F8013DEFD9FF
:106AFC002146FFF7C3FF0BB030BD2DE9F04186B046
:106B0C0000AF05460E46381D142114463B60FEF7B7
:106B1C00C1FB13280ED8391D2846FFF7AFFF0446DA
:106B2C001EB12846FFF7BFFF044420461837BD4668
:106B3C00BDE8F08100F1080323F00703E846ADEB54
:106B4C00030D2246411C3B686846FEF7A3FB6946D1
:106B5C002846FFF793FF0446C546E1E7014B0022A8
:106B6C009A607047D8E6032010B504460846217099
:106B7C00FEF70AFA00236360204610BD10B50446E8
:106B8C000068FEF777FB204610BD10B50446006880
:106B9C0008B1FEF76FFB0023C4E90133236010BD7D
:106BAC0038B504460D4600680131FEF76BFB10B199
:106BBC00C4E90005012038BD10B50368044623B1B3
:106BCC0043688B4201D3012010BD2046FFF7E8FF3C
:106BDC000028F9D0A368002BF5D122681370F2E7D6
:106BEC0037B50D46114601920446FFF7E5FF019AB1
:106BFC0028B92046FFF7C9FF204603B030BDA2607C
:106C0C002946206800F004FB2268A3680021D154B7
:106C1C00F2E738B5054600680C4668B16A688B68BF
:106C2C009A4207D3096800F072FBA368AB6000239B
:106C3C00A36038BDFEF71EFB23682B6063686B6096
:106C4C00A368AB600023C4E90033F1E710B500235F
:106C5C00C0E90033044683600373FFF7DAFF204674
:106C6C0010BD884210B5044605D00B682BB18A685C
:106C7C001946FFF7B5FF204610BDFFF786FFFAE770
:106C8C0010B500230446C0E9003383600373FFF79B
:106C9C00E8FF204610BD07B50B46002102460091C7
:106CAC0001208C21FEF764FA03B05DF804FB014669
:106CBC000020FFF7F0BF0020FFF7F9BF054B0222C1
:106CCC001A60054B054A9A600020C3E90000FEF7E4
:106CDC0023BA00BFF4E60320E8E603200000FFFF20
:106CEC00024B1A68024B1A60704700BF48E503203C
:106CFC00F8E6032070474174704708B5007CFEF736
:106D0C008BF920EAE07008BD08B5007CFEF75CF951
:106D1C0020EAE07008BD08B5007CFEF765F940EA92
:106D2C00E07008BD08B5007CFEF756F940EAE0704B
:106D3C0008BD007CFEF760B937B5457C04462DB123
:106D4C00207C03B0BDE83040FEF736B9007C0191E1
:106D5C00FEF762F900280199F2DC284603B030BD39
:106D6C0010B514210446FDF792F9204610BD000021
:106D7C0010B54FF47A730446084611460022C4E954
:106D8C000123044B2360012320746374FEF754F930
:106D9C00204610BD047A0B00007C0023FEF744B99A
:106DAC000022FFF7F9BF007CFEF7FEB84174704774
:106DBC007047704708B50021007CFEF76DF940EA7A
:106DCC00E07008BD08B50121007CFEF765F940EACA
:106DDC00E07008BD08B5007CFEF756F920EAE070BB
:106DEC0008BD08B5007CFEF747F920EAE07008BD45
:106DFC0013B50446007C0191FEF746F90028019971
:106E0C0001DC607C20B1207CFEF74EF920EAE070BA
:106E1C0002B010BD007CFEF74FB910B5142104462A
:106E2C00FDF735F9204610BD10B54FF47A730446C2
:106E3C0008460021C4E90113044B2360012320748C
:106E4C0063741146FEF700F9204610BD347A0B002E
:106E5C00007C0022FEF700B9007CFEF705B9007C2F
:106E6C00FEF732B910B514220446002100F0F8F9EF
:106E7C00204610BD10B50F4C88B003A8FFF7F2FFE9
:106E8C002178BFF35B8F11F001010FD120460191E6
:106E9C00FDF70CF9019948B103AA0748FFF7C4FFA5
:106EAC002046FDF708F9054800F0A4F9024808B09F
:106EBC0010BD00BFFCE6032000E70320BD6D0B00F6
:106ECC00014B1860704700BF4CE5032008B50B4B15
:106EDC0043B1FFF7CFFF03681B699847002801DD1A
:106EEC00AFF30080064B43B100F05CF903681B69FB
:106EFC009847002801DDAFF3008008BD00000000BA
:106F0C000000000008B5FFF7E1FFFDF79DFF014B06
:106F1C00186008BD28E703200548064A064908B54D
:106F2C00121A00F075F9054B054A1A6008BD00BF2E
:106F3C0000F4032004F40320247C0B0000F4032051
:106F4C001E1C279A07B5002300931A466FF0770191
:106F5C00FEF704F903B05DF804FB000007B54388A5
:106F6C000A2B08D0502B0BD1094B1B684BB103B02B
:106F7C005DF804EB1847FFF7E5FF03B05DF804FB81
:106F8C00002300931A466FF07701FEF7E7F8F4E759
:106F9C0018E7032010B512480021FEF793F9114BA6
:106FAC001A68114B9A42114B0CBF012200221A7025
:106FBC0001D0FFF7B1FFFDF737FF044600F058F999
:106FCC000B4B13B12046AFF3008000210848FEF7AD
:106FDC00E1F8BDE8104007480021FEF7B5B800BF46
:106FEC00CD6E0B0000F403201E1C279A14E703201F
:106FFC0000000000696F0B00232813B502D9002094
:10700C0002B010BDA0F10B03022B1AD8174C21783B
:10701C00BFF35B8F11F001010BD120460191FDF7FD
:10702C0045F8019928B11248FFF79EFD2046FDF75F
:10703C0042F80F4B1878FDF7AFFF0028DFD1012085
:10704C00DEE7012809D800F06DF80021007CFDF77F
:10705C006BFF80F00100C0B2D2E709380128EED8EE
:10706C0000F0A0F8007CFDF7CFFFF2E71CE703204F
:10707C0020E70320232838B504460D460AD8FF29FB
:10708C0008D0FFF7B9FF28B129462046BDE83840A3
:10709C00FDF7EABE38BD38B504460D46FDF7ECFEEB
:1070AC00FF2810D0062804D84D2323FA00F0C3077C
:1070BC0009D42046FFF7A0FF28B129462046BDE899
:1070CC003840FDF7E1BE38BD10B50446FDF7D4FEDF
:1070DC00031FDBB2012B08D92046FFF78DFF20B12F
:1070EC002046BDE81040FDF7D7BE002010BD70470C
:1070FC0038B50A4B0360012304464361084920203C
:10710C0000F076F8202560600549A560284600F05F
:10711C006FF8C4E90305204638BD00BF1800010014
:10712C005C7A0B0030B50E4D2978BFF35B8F11F0F4
:10713C00010487B011D12846FCF7B8FF68B1684646
:10714C00FFF7D6FF6A4621460648FEF7B3F92846F4
:10715C00FCF7B1FF044800F04DF8024807B030BD11
:10716C002CE7032030E70320FB700B007047000076
:10717C0038B5044614252A46002100F071F8258004
:10718C004025074925812846258200F031F804491D
:10719C006060284600F02CF8E060204638BD00BF47
:1071AC005C7A0B0030B50E4D2978BFF35B8F11F074
:1071BC00010487B011D12846FCF778FF68B101A80B
:1071CC00FFF7D6FF01AA21460648FFF7D1FD284656
:1071DC00FCF771FF044800F00DF8024807B030BD11
:1071EC0044E7032048E7032079710B00FCF74BBF01
:1071FC00FCF74BBF002301461A46184600F04CB969
:10720C00024B1844407800F097007047CD7A0B0081
:10721C000A44914200F1FF3300D1704710B511F8C8
:10722C00014B03F8014F9142F9D110BD884210B5C2
:10723C0001EB020402D98442234607D8431EA14223
:10724C0008D011F8012B03F8012FF8E7024401468E
:10725C008A4200D110BD13F8014D02F8014DF7E739
:10726C0002440346934200D1704703F8011BF9E72F
:10727C0038B5104B1D68AB6B0446B3B91820FDF73D
:10728C00F1FF0246A86320B90B4B0C484221FEF7D4
:10729C0011F80B490B4BC0E900130B4B83600B230C
:1072AC00838100210120C2E90401AB6B00221C6127
:1072BC005A6138BD4CE503205D7A0B00747A0B00E3
:1072CC000E33CDAB34126DE6ECDE0500C9B20346CD
:1072DC0010F8012B1AB18A42F9D1184670470029CF
:1072EC0018BF0023F9E710B50446FFF7EFFF18B9F4
:1072FC00204600F014F8204410BD10F8012B11F8B2
:10730C00013B012A28BF9A42F7D0D01A7047034696
:10731C0011F8012B03F8012B002AF9D17047034611
:10732C0013F8012B002AFBD1181A0138704710B53D
:10733C007AB103460139841813F8010B11F8012FA7
:10734C00904201D1A34201D1801A10BD0028F3D183
:10735C00FAE71046F9E738B503460C4669B9BDE8BB
:10736C003840FFF7B3BF431C054621461846FFF7CC
:10737C00ADFF0028F7D1284638BD0025F5E7000001
:10738C00012B2DE9F04701D0242B06D9FDF78AFFFC
:10739C00162303600020BDE8F087DFF8E4C00D463B
:1073AC002E4615F8014B14F80C7017F00807F7D19E
:1073BC002D2C32D12C780127B51C002B5BD0102B37
:1073CC0009D1302C07D12C7804F0DF04582C4DD186
:1073DC006C781023023507F1004808F1FF384FF0A4
:1073EC00000CB8FBF3F9664603FB198AA4F1300EC6
:1073FC00BEF1090F16D87446A34224DDBCF1000F70
:10740C001EDBB1451CD301D1A24519DB06FB03469B
:10741C004FF0010C15F8014BE8E72B2C04BF2C782E
:10742C00B51CCAE7A4F1410EBEF1190F01D8373CC7
:10743C00E2E7A4F1610EBEF1190F04D8573CDBE76B
:10744C004FF0FF3CE6E7BCF1000F05DA22230360A6
:10745C00464642B930469EE707B17642002AF9D03B
:10746C00BCF1000F00D0691E1160F3E73024002B33
:10747C00B1D10823AFE7302CA5D00A23ABE700BF6E
:10748C00CE7A0B0013460A46014602480068FFF705
:10749C0077BF00BF4CE503202DE9F843DFF8B88037
:1074AC000646D8F800001F460D46914600F056F8E7
:1074BC00254B1C6834B9254C1C60254B13B11B683B
:1074CC00C4F8883063681F2B07DDD8F8000000F083
:1074DC0047F84FF0FF30BDE8F8834EB3D4F888007E
:1074EC0088B91C4B23B9D8F8000000F038F8F0E745
:1074FC004FF48470FDF7B6FE0028F4D00023C0E9E9
:10750C004033C4F88800636840F8239001229A4005
:10751C0000EB8301D0F800311343C0F80031022E88
:10752C00C1F8807002BFD0F804311343C0F80431A5
:10753C006368D8F800005A1C0233626044F8235088
:10754C0000F00EF80020C6E7E8E703205CE7032014
:10755C000000000071520B00B0E50320704770472B
:10756C00704700001D400B0059400B0081400B0080
:10757C0085400B000000000043616C6C206F6E2096
:10758C0070757265207669727475616C00537461E4
:10759C0072747570202D20436F6D706C657465006E
:1075AC0000000000000000000000000000000000CF
:1075BC00A1400B00F9400B0000000000000000008F
:1075CC0005410B0039410B00E1650B00FB400B0042
:1075DC0053656E736F722054696D6564206F75749A
:1075EC00004F63637570616E6379207374617465A9
:1075FC00206368616E6765642066726F6D20256418
:10760C0020746F202564202825696D6D202F20257E
:10761C00696D6D2900546172676574207A6F6E65AF
:10762C0020697320636C6561722077697468207AB5
:10763C006F6E65312061742025696D6D20616E64FB
:10764C00207A6F6E65322061742025696D6D00544F
:10765C006172676574207A6F6E65206E6F7420633B
:10766C006C656172202D2077696C6C207761697470
:10767C002074656E207365636F6E647320616E6435
:10768C002074727920616761696E0053656E736F47
:10769C0072206572726F7220726573657420696EE8
:1076AC00203130207365636F6E64730053656E73A5
:1076BC006F7220696E69742073756363657373668A
:1076CC00756C6C790043616C6962726174696F6E80
:1076DC0020436F6D706C65746500496E69746961E7
:1076EC006C2063616C6962726174696F6E20666193
:1076FC00696C6564202D20776169742031302073AA
:10770C0065637320616E642072657365740000009C
:10771C000000000000000000E5430B00E7430B00F5
:10772C00696E6372656173656420746F0064656370
:10773C0072656173656420746F004572726F72209C
:10774C00696E206F63637570616E63792073746109
:10775C007465004F63637570616E637920257320C7
:10776C0025690000000000000000000015460B0019
:10777C0017460B0000000000000000007F470B00C4
:10778C005F470B0049470B0005470B003B470B00BD
:10779C0021470B0007470B00000101010200020802
:1077AC00000810010100000000FF000F00000000A5
:1077BC0000200B0000020A2100000500000000C898
:1077CC00000038FF010008000001DB0F01F10D0182
:1077DC0068008008B8000000000F8900000000005D
:1077EC000000010F0D0E0E000002C7FF9B000000F1
:1077FC00010000000000000000000000B3530B006B
:10780C00A9530B009F530B0055530B0093530B00C4
:10781C0087530B0039690B0041690B007B530B003C
:10782C0073530B0069530B005F530B0071690B0012
:10783C0000000000000000004B540B0041540B00F2
:10784C0037540B002D540B0021540B0015540B0016
:10785C0039690B0041690B0009540B0001540B00F2
:10786C00F7530B00ED530B0071690B000000000087
:10787C000000000069540B00B3540B008B540B0038
:10788C006B540B0093540B009B540B00A3540B0034
:10789C00AB540B00000000000000000081550B00F1
:1078AC0071550B0073550B0025640025750075256B
:1078BC0030347800626175640053657269616C00E4
:1078CC0053657269616C31004A534F4E5374726543
:1078DC00616D4C6F6748616E646C657200617070AD
:1078EC0000253031307520005D20002C2000282927
:1078FC003A2000205B00636F6465203D20006465C6
:10790C007461696C73203D20000D0A0066006C6E7A
:10791C0000666E00636F64650064657461696C0079
:10792C0000000000000000002D5A0B00535A0B0001
:10793C00115A0B008F560B000000000000000000D5
:10794C00895E0B00A15E0B00E1650B00FB400B0098
:10795C000000000000000000B55E0B00C95E0B00CB
:10796C0085670B00195A0B00000000000000000096
:10797C002B5A0B00615A0B0045650B001B5A0B0070
:10798C000000000000000000295A0B006F5A0B0089
:10799C00F15D0B00915A0B0000000000000000008C
:1079AC00F9680B0003690B000D690B0017690B00DC
:1079BC0021690B002D690B0039690B0041690B0023
:1079CC0049690B0055690B005D690B0067690B0079
:1079DC0071690B0025592D256D2D25645425483AC8
:1079EC00254D3A2553257A0061736374696D6500E2
:1079FC000000000000000000016D0B006D6D0B001D
:107A0C00456D0B005D6A0B00156D0B00316D0B00A5
:107A1C00236D0B003F6D0B00036D0B00076D0B000E
:107A2C000000000000000000BF6D0B00276E0B0073
:107A3C00FD6D0B005D6A0B00EF6D0B00C16D0B0053
:107A4C00D16D0B00216E0B00E16D0B00B96D0B00BD
:107A5C00005245454E54206D616C6C6F63207375FC
:107A6C0063636565646564002F746D702F6A656E61
:107A7C006B696E732D4743432D31302D70697065E2
:107A8C006C696E652D34385F3230323031313234BE
:107A9C005F313630363138303633392F7372632FCD
:107AAC006E65776C69622F6E65776C69622F6C6995
:107ABC0062632F7374646C69622F72616E642E63DF
:107ACC0000002020202020202020202828282828C2
:107ADC00202020202020202020202020202020209A
:107AEC0020208810101010101010101010101010F2
:107AFC0010100404040404040404040410101010F2
:107B0C0010101041414141414101010101010101AC
:107B1C00010101010101010101010101011010101C
:107B2C00101010424242424242020202020202027F
:107B3C0002020202020202020202020202101010EF
:107B4C0010200000000000000000000000000000F9
:107B5C000000000000000000000000000000000019
:107B6C000000000000000000000000000000000009
:107B7C0000000000000000000000000000000000F9
:107B8C0000000000000000000000000000000000E9
:107B9C0000000000000000000000000000000000D9
:107BAC0000000000000000000000000000000000C9
:107BBC0000000000000000000000000000000000B9
:107BCC000000000039430B00F9450B0045530B0036
:107BDC00BD530B0055540B00D1650B00496A0B00CB
:107BEC00696B0B00C96C0B00ED6C0B000000000006
:047BFC000000000085
:107C0000040000001400000003000000474E55006F
:107C1000D3808C7B4DA990AB3F6A652311EC0B9A06
:047C200056C12558CC
:047C2400000000005C
:107C28003BC300007C790B0094790B00F4790B00BE
:107C380050E50320000000000000000000000000E4
:107C4800000000000000000000000000000000002C
:107C5800000000000000000000000000000000001C
:107C6800000000000000000000000000000000000C
:107C780000000000000000000000000000000000FC
:107C880000000000000000000000000000000000EC
:087C980000000000ECE70320EE
:107CA000FFFFFFFF00000102030405060708090AA1
:107CB0000B0C0D0E0F101112131415161718191A9C
:087CC0001B1C1D1E1F202800E3
:047CC80078563412A4
:04000003B000401CED
:00000001FF
